{
  "contractName": "BancorPriceFloor",
  "abi": [
    {
      "constant": true,
      "inputs": [],
      "name": "TOKEN_PRICE_D",
      "outputs": [
        {
          "name": "",
          "type": "uint256"
        }
      ],
      "payable": false,
      "stateMutability": "view",
      "type": "function"
    },
    {
      "constant": true,
      "inputs": [],
      "name": "TOKEN_PRICE_N",
      "outputs": [
        {
          "name": "",
          "type": "uint256"
        }
      ],
      "payable": false,
      "stateMutability": "view",
      "type": "function"
    },
    {
      "constant": true,
      "inputs": [],
      "name": "version",
      "outputs": [
        {
          "name": "",
          "type": "string"
        }
      ],
      "payable": false,
      "stateMutability": "view",
      "type": "function"
    },
    {
      "constant": false,
      "inputs": [
        {
          "name": "_token",
          "type": "address"
        },
        {
          "name": "_to",
          "type": "address"
        },
        {
          "name": "_amount",
          "type": "uint256"
        }
      ],
      "name": "withdrawTokens",
      "outputs": [],
      "payable": false,
      "stateMutability": "nonpayable",
      "type": "function"
    },
    {
      "constant": false,
      "inputs": [],
      "name": "acceptOwnership",
      "outputs": [],
      "payable": false,
      "stateMutability": "nonpayable",
      "type": "function"
    },
    {
      "constant": true,
      "inputs": [],
      "name": "owner",
      "outputs": [
        {
          "name": "",
          "type": "address"
        }
      ],
      "payable": false,
      "stateMutability": "view",
      "type": "function"
    },
    {
      "constant": true,
      "inputs": [],
      "name": "newOwner",
      "outputs": [
        {
          "name": "",
          "type": "address"
        }
      ],
      "payable": false,
      "stateMutability": "view",
      "type": "function"
    },
    {
      "constant": false,
      "inputs": [
        {
          "name": "_newOwner",
          "type": "address"
        }
      ],
      "name": "transferOwnership",
      "outputs": [],
      "payable": false,
      "stateMutability": "nonpayable",
      "type": "function"
    },
    {
      "constant": true,
      "inputs": [],
      "name": "token",
      "outputs": [
        {
          "name": "",
          "type": "address"
        }
      ],
      "payable": false,
      "stateMutability": "view",
      "type": "function"
    },
    {
      "inputs": [
        {
          "name": "_token",
          "type": "address"
        }
      ],
      "payable": false,
      "stateMutability": "nonpayable",
      "type": "constructor"
    },
    {
      "payable": true,
      "stateMutability": "payable",
      "type": "fallback"
    },
    {
      "anonymous": false,
      "inputs": [
        {
          "indexed": true,
          "name": "_prevOwner",
          "type": "address"
        },
        {
          "indexed": true,
          "name": "_newOwner",
          "type": "address"
        }
      ],
      "name": "OwnerUpdate",
      "type": "event"
    },
    {
      "constant": false,
      "inputs": [],
      "name": "sell",
      "outputs": [
        {
          "name": "amount",
          "type": "uint256"
        }
      ],
      "payable": false,
      "stateMutability": "nonpayable",
      "type": "function"
    },
    {
      "constant": false,
      "inputs": [
        {
          "name": "_amount",
          "type": "uint256"
        }
      ],
      "name": "withdraw",
      "outputs": [],
      "payable": false,
      "stateMutability": "nonpayable",
      "type": "function"
    }
  ],
  "bytecode": "0x60806040526040805190810160405280600381526020017f302e3100000000000000000000000000000000000000000000000000000000008152506002908051906020019061004f929190610144565b5034801561005c57600080fd5b50604051602080610f3783398101806040528101908080519060200190929190505050336000806101000a81548173ffffffffffffffffffffffffffffffffffffffff021916908373ffffffffffffffffffffffffffffffffffffffff16021790555080600073ffffffffffffffffffffffffffffffffffffffff168173ffffffffffffffffffffffffffffffffffffffff16141515156100fc57600080fd5b81600360006101000a81548173ffffffffffffffffffffffffffffffffffffffff021916908373ffffffffffffffffffffffffffffffffffffffff16021790555050506101e9565b828054600181600116156101000203166002900490600052602060002090601f016020900481019282601f1061018557805160ff19168380011785556101b3565b828001600101855582156101b3579182015b828111156101b2578251825591602001919060010190610197565b5b5090506101c091906101c4565b5090565b6101e691905b808211156101e25760008160009055506001016101ca565b5090565b90565b610d3f806101f86000396000f3006080604052600436106100af576000357c0100000000000000000000000000000000000000000000000000000000900463ffffffff1680630d2806ad146100b15780632e1a7d4d146100dc578063457100741461010957806345cfad3e1461013457806354fd4d501461015f5780635e35359e146101ef57806379ba50971461025c5780638da5cb5b14610273578063d4ee1d90146102ca578063f2fde38b14610321578063fc0c546a14610364575b005b3480156100bd57600080fd5b506100c66103bb565b6040518082815260200191505060405180910390f35b3480156100e857600080fd5b50610107600480360381019080803590602001909291905050506103c0565b005b34801561011557600080fd5b5061011e610462565b6040518082815260200191505060405180910390f35b34801561014057600080fd5b50610149610739565b6040518082815260200191505060405180910390f35b34801561016b57600080fd5b5061017461073e565b6040518080602001828103825283818151815260200191508051906020019080838360005b838110156101b4578082015181840152602081019050610199565b50505050905090810190601f1680156101e15780820380516001836020036101000a031916815260200191505b509250505060405180910390f35b3480156101fb57600080fd5b5061025a600480360381019080803573ffffffffffffffffffffffffffffffffffffffff169060200190929190803573ffffffffffffffffffffffffffffffffffffffff169060200190929190803590602001909291905050506107dc565b005b34801561026857600080fd5b506102716109d8565b005b34801561027f57600080fd5b50610288610b77565b604051808273ffffffffffffffffffffffffffffffffffffffff1673ffffffffffffffffffffffffffffffffffffffff16815260200191505060405180910390f35b3480156102d657600080fd5b506102df610b9c565b604051808273ffffffffffffffffffffffffffffffffffffffff1673ffffffffffffffffffffffffffffffffffffffff16815260200191505060405180910390f35b34801561032d57600080fd5b50610362600480360381019080803573ffffffffffffffffffffffffffffffffffffffff169060200190929190505050610bc2565b005b34801561037057600080fd5b50610379610cba565b604051808273ffffffffffffffffffffffffffffffffffffffff1673ffffffffffffffffffffffffffffffffffffffff16815260200191505060405180910390f35b606481565b6000809054906101000a900473ffffffffffffffffffffffffffffffffffffffff1673ffffffffffffffffffffffffffffffffffffffff163373ffffffffffffffffffffffffffffffffffffffff1614151561041857fe5b3373ffffffffffffffffffffffffffffffffffffffff166108fc829081150290604051600060405180830381858888f1935050505015801561045e573d6000803e3d6000fd5b5050565b6000806000600360009054906101000a900473ffffffffffffffffffffffffffffffffffffffff1673ffffffffffffffffffffffffffffffffffffffff1663dd62ed3e33306040518363ffffffff167c0100000000000000000000000000000000000000000000000000000000028152600401808373ffffffffffffffffffffffffffffffffffffffff1673ffffffffffffffffffffffffffffffffffffffff1681526020018273ffffffffffffffffffffffffffffffffffffffff1673ffffffffffffffffffffffffffffffffffffffff16815260200192505050602060405180830381600087803b15801561055857600080fd5b505af115801561056c573d6000803e3d6000fd5b505050506040513d602081101561058257600080fd5b81019080805190602001909291905050509150600360009054906101000a900473ffffffffffffffffffffffffffffffffffffffff1673ffffffffffffffffffffffffffffffffffffffff166323b872dd3330856040518463ffffffff167c0100000000000000000000000000000000000000000000000000000000028152600401808473ffffffffffffffffffffffffffffffffffffffff1673ffffffffffffffffffffffffffffffffffffffff1681526020018373ffffffffffffffffffffffffffffffffffffffff1673ffffffffffffffffffffffffffffffffffffffff1681526020018281526020019350505050602060405180830381600087803b15801561068e57600080fd5b505af11580156106a2573d6000803e3d6000fd5b505050506040513d60208110156106b857600080fd5b810190808051906020019092919050505015156106d157fe5b60646106de836001610ce0565b8115156106e757fe5b0490503373ffffffffffffffffffffffffffffffffffffffff166108fc829081150290604051600060405180830381858888f19350505050158015610730573d6000803e3d6000fd5b50809250505090565b600181565b60028054600181600116156101000203166002900480601f0160208091040260200160405190810160405280929190818152602001828054600181600116156101000203166002900480156107d45780601f106107a9576101008083540402835291602001916107d4565b820191906000526020600020905b8154815290600101906020018083116107b757829003601f168201915b505050505081565b6000809054906101000a900473ffffffffffffffffffffffffffffffffffffffff1673ffffffffffffffffffffffffffffffffffffffff163373ffffffffffffffffffffffffffffffffffffffff1614151561083457fe5b82600073ffffffffffffffffffffffffffffffffffffffff168173ffffffffffffffffffffffffffffffffffffffff161415151561087157600080fd5b82600073ffffffffffffffffffffffffffffffffffffffff168173ffffffffffffffffffffffffffffffffffffffff16141515156108ae57600080fd5b833073ffffffffffffffffffffffffffffffffffffffff168173ffffffffffffffffffffffffffffffffffffffff16141515156108ea57600080fd5b8573ffffffffffffffffffffffffffffffffffffffff1663a9059cbb86866040518363ffffffff167c0100000000000000000000000000000000000000000000000000000000028152600401808373ffffffffffffffffffffffffffffffffffffffff1673ffffffffffffffffffffffffffffffffffffffff16815260200182815260200192505050602060405180830381600087803b15801561098d57600080fd5b505af11580156109a1573d6000803e3d6000fd5b505050506040513d60208110156109b757600080fd5b810190808051906020019092919050505015156109d057fe5b505050505050565b600160009054906101000a900473ffffffffffffffffffffffffffffffffffffffff1673ffffffffffffffffffffffffffffffffffffffff163373ffffffffffffffffffffffffffffffffffffffff16141515610a3457600080fd5b600160009054906101000a900473ffffffffffffffffffffffffffffffffffffffff1673ffffffffffffffffffffffffffffffffffffffff166000809054906101000a900473ffffffffffffffffffffffffffffffffffffffff1673ffffffffffffffffffffffffffffffffffffffff167f343765429aea5a34b3ff6a3785a98a5abb2597aca87bfbb58632c173d585373a60405160405180910390a3600160009054906101000a900473ffffffffffffffffffffffffffffffffffffffff166000806101000a81548173ffffffffffffffffffffffffffffffffffffffff021916908373ffffffffffffffffffffffffffffffffffffffff1602179055506000600160006101000a81548173ffffffffffffffffffffffffffffffffffffffff021916908373ffffffffffffffffffffffffffffffffffffffff160217905550565b6000809054906101000a900473ffffffffffffffffffffffffffffffffffffffff1681565b600160009054906101000a900473ffffffffffffffffffffffffffffffffffffffff1681565b6000809054906101000a900473ffffffffffffffffffffffffffffffffffffffff1673ffffffffffffffffffffffffffffffffffffffff163373ffffffffffffffffffffffffffffffffffffffff16141515610c1a57fe5b6000809054906101000a900473ffffffffffffffffffffffffffffffffffffffff1673ffffffffffffffffffffffffffffffffffffffff168173ffffffffffffffffffffffffffffffffffffffff1614151515610c7657600080fd5b80600160006101000a81548173ffffffffffffffffffffffffffffffffffffffff021916908373ffffffffffffffffffffffffffffffffffffffff16021790555050565b600360009054906101000a900473ffffffffffffffffffffffffffffffffffffffff1681565b60008082840290506000841480610d015750828482811515610cfe57fe5b04145b1515610d0957fe5b80915050929150505600a165627a7a72305820e60d33b738f40026e1c7adcf3dd76bb0bb2b3918ba671bc90f5eddbb056fcc440029",
  "source": "pragma solidity ^0.4.18;\nimport './TokenHolder.sol';\nimport './Owned.sol';\nimport './Utils.sol';\nimport './interfaces/ISmartToken.sol';\n\n/*\n    BancorPriceFloor v0.1\n\n    The bancor price floor contract is a simple contract that allows selling smart tokens for a constant ETH price\n\n    'Owned' is specified here for readability reasons\n*/\ncontract BancorPriceFloor is Owned, TokenHolder {\n    uint256 public constant TOKEN_PRICE_N = 1;      // crowdsale price in wei (numerator)\n    uint256 public constant TOKEN_PRICE_D = 100;    // crowdsale price in wei (denominator)\n\n    string public version = '0.1';\n    ISmartToken public token; // smart token the contract allows selling\n\n    /**\n        @dev constructor\n\n        @param _token   smart token the contract allows selling\n    */\n    function BancorPriceFloor(ISmartToken _token)\n        public\n        validAddress(_token)\n    {\n        token = _token;\n    }\n\n    /**\n        @dev sells the smart token for ETH\n        note that the function will sell the full allowance amount\n\n        @return ETH sent in return\n    */\n    function sell() public returns (uint256 amount) {\n        uint256 allowance = token.allowance(msg.sender, this); // get the full allowance amount\n        assert(token.transferFrom(msg.sender, this, allowance)); // transfer all tokens from the sender to the contract\n        uint256 etherValue = safeMul(allowance, TOKEN_PRICE_N) / TOKEN_PRICE_D; // calculate ETH value of the tokens\n        msg.sender.transfer(etherValue); // send the ETH amount to the seller\n        return etherValue;\n    }\n\n    /**\n        @dev withdraws ETH from the contract\n\n        @param _amount  amount of ETH to withdraw\n    */\n    function withdraw(uint256 _amount) public ownerOnly {\n        msg.sender.transfer(_amount); // send the amount\n    }\n\n    /**\n        @dev deposits ETH in the contract\n    */\n    function() public payable {\n    }\n}\n",
  "sourcePath": "D:\\EthereumProjects\\work\\mulaProtocol\\contracts\\bancor\\contracts\\BancorPriceFloor.sol",
  "compiler": {
    "name": "solc",
    "version": "0.4.23+commit.124ca40d.Emscripten.clang"
  },
  "schemaVersion": "2.0.0",
  "updatedAt": "2018-05-02T11:24:08.507Z"
}