{
  "contractName": "BancorConverterFactory",
  "abi": [
    {
      "inputs": [],
      "payable": false,
      "stateMutability": "nonpayable",
      "type": "constructor"
    },
    {
      "anonymous": false,
      "inputs": [
        {
          "indexed": true,
          "name": "_converter",
          "type": "address"
        },
        {
          "indexed": true,
          "name": "_owner",
          "type": "address"
        }
      ],
      "name": "NewConverter",
      "type": "event"
    },
    {
      "constant": false,
      "inputs": [
        {
          "name": "_token",
          "type": "address"
        },
        {
          "name": "_extensions",
          "type": "address"
        },
        {
          "name": "_maxConversionFee",
          "type": "uint32"
        },
        {
          "name": "_connectorToken",
          "type": "address"
        },
        {
          "name": "_connectorWeight",
          "type": "uint32"
        }
      ],
      "name": "createConverter",
      "outputs": [
        {
          "name": "converterAddress",
          "type": "address"
        }
      ],
      "payable": false,
      "stateMutability": "nonpayable",
      "type": "function"
    }
  ],
  "bytecode": "0x608060405234801561001057600080fd5b50616145806100206000396000f300608060405260043610610041576000357c0100000000000000000000000000000000000000000000000000000000900463ffffffff168063034efaeb14610046575b600080fd5b34801561005257600080fd5b506100e7600480360381019080803573ffffffffffffffffffffffffffffffffffffffff169060200190929190803573ffffffffffffffffffffffffffffffffffffffff169060200190929190803563ffffffff169060200190929190803573ffffffffffffffffffffffffffffffffffffffff169060200190929190803563ffffffff169060200190929190505050610129565b604051808273ffffffffffffffffffffffffffffffffffffffff1673ffffffffffffffffffffffffffffffffffffffff16815260200191505060405180910390f35b6000806000878787878761013b6103ed565b808673ffffffffffffffffffffffffffffffffffffffff1673ffffffffffffffffffffffffffffffffffffffff1681526020018573ffffffffffffffffffffffffffffffffffffffff1673ffffffffffffffffffffffffffffffffffffffff1681526020018463ffffffff1663ffffffff1681526020018373ffffffffffffffffffffffffffffffffffffffff1673ffffffffffffffffffffffffffffffffffffffff1681526020018263ffffffff1663ffffffff16815260200195505050505050604051809103906000f080158015610219573d6000803e3d6000fd5b5091508173ffffffffffffffffffffffffffffffffffffffff1663f2fde38b336040518263ffffffff167c0100000000000000000000000000000000000000000000000000000000028152600401808273ffffffffffffffffffffffffffffffffffffffff1673ffffffffffffffffffffffffffffffffffffffff168152602001915050600060405180830381600087803b1580156102b757600080fd5b505af11580156102cb573d6000803e3d6000fd5b505050508173ffffffffffffffffffffffffffffffffffffffff1663e4edf852336040518263ffffffff167c0100000000000000000000000000000000000000000000000000000000028152600401808273ffffffffffffffffffffffffffffffffffffffff1673ffffffffffffffffffffffffffffffffffffffff168152602001915050600060405180830381600087803b15801561036a57600080fd5b505af115801561037e573d6000803e3d6000fd5b505050508190503373ffffffffffffffffffffffffffffffffffffffff168173ffffffffffffffffffffffffffffffffffffffff167fb54eb8f70476910bea510b4ca1ece1fdb11eeb345b0d46221dd40ba86e64953360405160405180910390a3809250505095945050505050565b604051615d1c806103fe83390190560060806040526040805190810160405280600381526020017f302e3800000000000000000000000000000000000000000000000000000000008152506005908051906020019062000051929190620008fb565b506040805190810160405280600681526020017f62616e636f720000000000000000000000000000000000000000000000000000815250600690805190602001906200009f929190620008fb565b506000600b60006101000a81548163ffffffff021916908363ffffffff1602179055506000600b60046101000a81548163ffffffff021916908363ffffffff1602179055506000600b60086101000a81548163ffffffff021916908363ffffffff1602179055506001600b600c6101000a81548160ff0219169083151502179055503480156200012e57600080fd5b5060405160a08062005d1c833981018060405281019080805190602001909291908051906020019092919080519060200190929190805190602001909291908051906020019092919050505084336000806101000a81548173ffffffffffffffffffffffffffffffffffffffff021916908373ffffffffffffffffffffffffffffffffffffffff16021790555080600073ffffffffffffffffffffffffffffffffffffffff168173ffffffffffffffffffffffffffffffffffffffff1614151515620001f957600080fd5b81600260006101000a81548173ffffffffffffffffffffffffffffffffffffffff021916908373ffffffffffffffffffffffffffffffffffffffff160217905550505033600360006101000a81548173ffffffffffffffffffffffffffffffffffffffff021916908373ffffffffffffffffffffffffffffffffffffffff16021790555083600073ffffffffffffffffffffffffffffffffffffffff168173ffffffffffffffffffffffffffffffffffffffff1614151515620002bb57600080fd5b8360008163ffffffff1610158015620002e35750620f424063ffffffff168163ffffffff1611155b1515620002ef57600080fd5b85600760006101000a81548173ffffffffffffffffffffffffffffffffffffffff021916908373ffffffffffffffffffffffffffffffffffffffff16021790555084600b60046101000a81548163ffffffff021916908363ffffffff160217905550600073ffffffffffffffffffffffffffffffffffffffff168473ffffffffffffffffffffffffffffffffffffffff16141515620003a657620003a584846000620003b3640100000000026401000000009004565b5b50505050505050620009aa565b6000809054906101000a900473ffffffffffffffffffffffffffffffffffffffff1673ffffffffffffffffffffffffffffffffffffffff163373ffffffffffffffffffffffffffffffffffffffff161415156200040c57fe5b3073ffffffffffffffffffffffffffffffffffffffff16600260009054906101000a900473ffffffffffffffffffffffffffffffffffffffff1673ffffffffffffffffffffffffffffffffffffffff16638da5cb5b6040518163ffffffff167c0100000000000000000000000000000000000000000000000000000000028152600401602060405180830381600087803b158015620004aa57600080fd5b505af1158015620004bf573d6000803e3d6000fd5b505050506040513d6020811015620004d657600080fd5b810190808051906020019092919050505073ffffffffffffffffffffffffffffffffffffffff16141515156200050857fe5b82600073ffffffffffffffffffffffffffffffffffffffff168173ffffffffffffffffffffffffffffffffffffffff16141515156200054657600080fd5b833073ffffffffffffffffffffffffffffffffffffffff168173ffffffffffffffffffffffffffffffffffffffff16141515156200058357600080fd5b8360008163ffffffff16118015620005aa5750620f424063ffffffff168163ffffffff1611155b1515620005b657600080fd5b600260009054906101000a900473ffffffffffffffffffffffffffffffffffffffff1673ffffffffffffffffffffffffffffffffffffffff168673ffffffffffffffffffffffffffffffffffffffff1614158015620006625750600a60008773ffffffffffffffffffffffffffffffffffffffff1673ffffffffffffffffffffffffffffffffffffffff16815260200190815260200160002060010160069054906101000a900460ff16155b8015620006925750620f424063ffffffff1685600b60009054906101000a900463ffffffff160163ffffffff1611155b15156200069e57600080fd5b6000600a60008873ffffffffffffffffffffffffffffffffffffffff1673ffffffffffffffffffffffffffffffffffffffff1681526020019081526020016000206000018190555084600a60008873ffffffffffffffffffffffffffffffffffffffff1673ffffffffffffffffffffffffffffffffffffffff16815260200190815260200160002060010160006101000a81548163ffffffff021916908363ffffffff16021790555083600a60008873ffffffffffffffffffffffffffffffffffffffff1673ffffffffffffffffffffffffffffffffffffffff16815260200190815260200160002060010160046101000a81548160ff0219169083151502179055506001600a60008873ffffffffffffffffffffffffffffffffffffffff1673ffffffffffffffffffffffffffffffffffffffff16815260200190815260200160002060010160056101000a81548160ff0219169083151502179055506001600a60008873ffffffffffffffffffffffffffffffffffffffff1673ffffffffffffffffffffffffffffffffffffffff16815260200190815260200160002060010160066101000a81548160ff02191690831515021790555060088690806001815401808255809150509060018203906000526020600020016000909192909190916101000a81548173ffffffffffffffffffffffffffffffffffffffff021916908373ffffffffffffffffffffffffffffffffffffffff1602179055505084600b60008282829054906101000a900463ffffffff160192506101000a81548163ffffffff021916908363ffffffff160217905550505050505050565b828054600181600116156101000203166002900490600052602060002090601f016020900481019282601f106200093e57805160ff19168380011785556200096f565b828001600101855582156200096f579182015b828111156200096e57825182559160200191906001019062000951565b5b5090506200097e919062000982565b5090565b620009a791905b80821115620009a357600081600090555060010162000989565b5090565b90565b61536280620009ba6000396000f300608060405260043610610225576000357c0100000000000000000000000000000000000000000000000000000000900463ffffffff1680630ca78923146102ba5780630e53aae91461032357806314c9035e146103ae57806319b640151461046c5780631e1401f8146104d957806321e6b53d1461055a578063228d28201461059d5780632314aad6146105cc57806324f159c21461060f5780632a2e2f0c146106665780632a3c2c56146106f157806338a5e016146107325780633e8ff43f146107495780633f4d2fc2146107d957806341a5b33d1461083857806342906029146108a5578063481c6a75146108fc5780634e2280c414610953578063514385be1461096a57806354fd4d50146109b9578063579cd3ca14610a495780635e35359e14610a805780635e5144eb14610aed57806371f52bf314610b7857806372b44b2c14610bab57806375892cf114610c0c57806379ba509714610c9757806385d5e63114610cae5780638da5cb5b14610cdd5780639396a7f014610d3457806394c275ad14610d5f578063a2c4c33614610d96578063ba9a8b3714610df7578063bf75455814610e2a578063c8c2fe6c14610e59578063d395ee0f14610e70578063d4ee1d9014610ed6578063d895951214610f2d578063e4edf85214610f84578063e7ee85a514610fc7578063ecbca55d14611034578063f0843ba914611067578063f2c8d247146110e8578063f2fde38b14611159578063fc0c546a1461119c575b6102b760098054806020026020016040519081016040528092919081815260200182805480156102aa57602002820191906000526020600020905b8160009054906101000a900473ffffffffffffffffffffffffffffffffffffffff1673ffffffffffffffffffffffffffffffffffffffff1681526020019060010190808311610260575b50505050503460016111f3565b50005b3480156102c657600080fd5b50610321600480360381019080803573ffffffffffffffffffffffffffffffffffffffff169060200190929190803563ffffffff16906020019092919080351515906020019092919080359060200190929190505050611250565b005b34801561032f57600080fd5b50610364600480360381019080803573ffffffffffffffffffffffffffffffffffffffff16906020019092919050505061145c565b604051808681526020018563ffffffff1663ffffffff1681526020018415151515815260200183151515158152602001821515151581526020019550505050505060405180910390f35b6104566004803603810190808035906020019082018035906020019080806020026020016040519081016040528093929190818152602001838360200280828437820191505050505050919291929080359060200190929190803590602001909291908035906020019092919080359060200190929190803560ff169060200190929190803560001916906020019092919080356000191690602001909291905050506114c9565b6040518082815260200191505060405180910390f35b34801561047857600080fd5b5061049760048036038101908080359060200190929190505050611a9d565b604051808273ffffffffffffffffffffffffffffffffffffffff1673ffffffffffffffffffffffffffffffffffffffff16815260200191505060405180910390f35b3480156104e557600080fd5b50610544600480360381019080803573ffffffffffffffffffffffffffffffffffffffff169060200190929190803573ffffffffffffffffffffffffffffffffffffffff16906020019092919080359060200190929190505050611adb565b6040518082815260200191505060405180910390f35b34801561056657600080fd5b5061059b600480360381019080803573ffffffffffffffffffffffffffffffffffffffff169060200190929190505050611cd2565b005b3480156105a957600080fd5b506105ca600480360381019080803515159060200190929190505050611e02565b005b3480156105d857600080fd5b5061060d600480360381019080803573ffffffffffffffffffffffffffffffffffffffff169060200190929190505050611ed3565b005b34801561061b57600080fd5b50610624611fea565b604051808273ffffffffffffffffffffffffffffffffffffffff1673ffffffffffffffffffffffffffffffffffffffff16815260200191505060405180910390f35b34801561067257600080fd5b506106db600480360381019080803573ffffffffffffffffffffffffffffffffffffffff169060200190929190803573ffffffffffffffffffffffffffffffffffffffff1690602001909291908035906020019092919080359060200190929190505050612010565b6040518082815260200191505060405180910390f35b3480156106fd57600080fd5b5061071c6004803603810190808035906020019092919050505061223d565b6040518082815260200191505060405180910390f35b34801561073e57600080fd5b5061074761227c565b005b34801561075557600080fd5b5061075e612374565b6040518080602001828103825283818151815260200191508051906020019080838360005b8381101561079e578082015181840152602081019050610783565b50505050905090810190601f1680156107cb5780820380516001836020036101000a031916815260200191505b509250505060405180910390f35b3480156107e557600080fd5b50610836600480360381019080803573ffffffffffffffffffffffffffffffffffffffff169060200190929190803563ffffffff169060200190929190803515159060200190929190505050612412565b005b34801561084457600080fd5b506108a3600480360381019080803573ffffffffffffffffffffffffffffffffffffffff169060200190929190803573ffffffffffffffffffffffffffffffffffffffff1690602001909291908035906020019092919050505061294e565b005b3480156108b157600080fd5b506108ba612abc565b604051808273ffffffffffffffffffffffffffffffffffffffff1673ffffffffffffffffffffffffffffffffffffffff16815260200191505060405180910390f35b34801561090857600080fd5b50610911612ae2565b604051808273ffffffffffffffffffffffffffffffffffffffff1673ffffffffffffffffffffffffffffffffffffffff16815260200191505060405180910390f35b34801561095f57600080fd5b50610968612b08565b005b34801561097657600080fd5b506109b7600480360381019080803573ffffffffffffffffffffffffffffffffffffffff169060200190929190803515159060200190929190505050612b72565b005b3480156109c557600080fd5b506109ce612c86565b6040518080602001828103825283818151815260200191508051906020019080838360005b83811015610a0e5780820151818401526020810190506109f3565b50505050905090810190601f168015610a3b5780820380516001836020036101000a031916815260200191505b509250505060405180910390f35b348015610a5557600080fd5b50610a5e612d24565b604051808263ffffffff1663ffffffff16815260200191505060405180910390f35b348015610a8c57600080fd5b50610aeb600480360381019080803573ffffffffffffffffffffffffffffffffffffffff169060200190929190803573ffffffffffffffffffffffffffffffffffffffff16906020019092919080359060200190929190505050612d3a565b005b348015610af957600080fd5b50610b62600480360381019080803573ffffffffffffffffffffffffffffffffffffffff169060200190929190803573ffffffffffffffffffffffffffffffffffffffff1690602001909291908035906020019092919080359060200190929190505050612f36565b6040518082815260200191505060405180910390f35b348015610b8457600080fd5b50610b8d612f4e565b604051808261ffff1661ffff16815260200191505060405180910390f35b348015610bb757600080fd5b50610bf6600480360381019080803573ffffffffffffffffffffffffffffffffffffffff16906020019092919080359060200190929190505050612f5b565b6040518082815260200191505060405180910390f35b348015610c1857600080fd5b50610c81600480360381019080803573ffffffffffffffffffffffffffffffffffffffff169060200190929190803573ffffffffffffffffffffffffffffffffffffffff1690602001909291908035906020019092919080359060200190929190505050613030565b6040518082815260200191505060405180910390f35b348015610ca357600080fd5b50610cac6131a0565b005b348015610cba57600080fd5b50610cdb60048036038101908080351515906020019092919050505061333f565b005b348015610ce957600080fd5b50610cf2613447565b604051808273ffffffffffffffffffffffffffffffffffffffff1673ffffffffffffffffffffffffffffffffffffffff16815260200191505060405180910390f35b348015610d4057600080fd5b50610d4961346c565b6040518082815260200191505060405180910390f35b348015610d6b57600080fd5b50610d74613479565b604051808263ffffffff1663ffffffff16815260200191505060405180910390f35b348015610da257600080fd5b50610de1600480360381019080803573ffffffffffffffffffffffffffffffffffffffff1690602001909291908035906020019092919050505061348f565b6040518082815260200191505060405180910390f35b348015610e0357600080fd5b50610e0c6138de565b604051808261ffff1661ffff16815260200191505060405180910390f35b348015610e3657600080fd5b50610e3f6138f0565b604051808215151515815260200191505060405180910390f35b348015610e6557600080fd5b50610e6e613903565b005b348015610e7c57600080fd5b50610ed460048036038101908080359060200190820180359060200190808060200260200160405190810160405280939291908181526020018383602002808284378201915050505050509192919290505050613aa4565b005b348015610ee257600080fd5b50610eeb613b4f565b604051808273ffffffffffffffffffffffffffffffffffffffff1673ffffffffffffffffffffffffffffffffffffffff16815260200191505060405180910390f35b348015610f3957600080fd5b50610f6e600480360381019080803573ffffffffffffffffffffffffffffffffffffffff169060200190929190505050613b75565b6040518082815260200191505060405180910390f35b348015610f9057600080fd5b50610fc5600480360381019080803573ffffffffffffffffffffffffffffffffffffffff169060200190929190505050613d15565b005b348015610fd357600080fd5b50610ff260048036038101908080359060200190929190505050613e0f565b604051808273ffffffffffffffffffffffffffffffffffffffff1673ffffffffffffffffffffffffffffffffffffffff16815260200191505060405180910390f35b34801561104057600080fd5b50611065600480360381019080803563ffffffff169060200190929190505050613e4d565b005b6110d26004803603810190808035906020019082018035906020019080806020026020016040519081016040528093929190818152602001838360200280828437820191505050505050919291929080359060200190929190803590602001909291905050506111f3565b6040518082815260200191505060405180910390f35b3480156110f457600080fd5b50611117600480360381019080803561ffff169060200190929190505050613fcf565b604051808273ffffffffffffffffffffffffffffffffffffffff1673ffffffffffffffffffffffffffffffffffffffff16815260200191505060405180910390f35b34801561116557600080fd5b5061119a600480360381019080803573ffffffffffffffffffffffffffffffffffffffff169060200190929190505050614050565b005b3480156111a857600080fd5b506111b1614148565b604051808273ffffffffffffffffffffffffffffffffffffffff1673ffffffffffffffffffffffffffffffffffffffff16815260200191505060405180910390f35b6000836002815111801561120957506015815111155b8015611222575060016002825181151561121f57fe5b06145b151561122d57600080fd5b61124685858560008060008060010260006001026114c9565b9150509392505050565b60008060009054906101000a900473ffffffffffffffffffffffffffffffffffffffff1673ffffffffffffffffffffffffffffffffffffffff163373ffffffffffffffffffffffffffffffffffffffff161415156112aa57fe5b84600a60008273ffffffffffffffffffffffffffffffffffffffff1673ffffffffffffffffffffffffffffffffffffffff16815260200190815260200160002060010160069054906101000a900460ff16151561130657600080fd5b8460008163ffffffff1611801561132c5750620f424063ffffffff168163ffffffff1611155b151561133757600080fd5b600a60008873ffffffffffffffffffffffffffffffffffffffff1673ffffffffffffffffffffffffffffffffffffffff1681526020019081526020016000209250620f424063ffffffff16868460010160009054906101000a900463ffffffff16600b60009054906101000a900463ffffffff16030163ffffffff16111515156113c057600080fd5b858360010160009054906101000a900463ffffffff16600b60009054906101000a900463ffffffff160301600b60006101000a81548163ffffffff021916908363ffffffff160217905550858360010160006101000a81548163ffffffff021916908363ffffffff160217905550848360010160046101000a81548160ff02191690831515021790555083836000018190555050505050505050565b600a6020528060005260406000206000915090508060000154908060010160009054906101000a900463ffffffff16908060010160049054906101000a900460ff16908060010160059054906101000a900460ff16908060010160069054906101000a900460ff16905085565b60008060008a600281511180156114e257506015815111155b80156114fb57506001600282518115156114f857fe5b06145b151561150657600080fd5b8b600081518110151561151557fe5b906020019060200201519250600760009054906101000a900473ffffffffffffffffffffffffffffffffffffffff1673ffffffffffffffffffffffffffffffffffffffff1663c31e05476040518163ffffffff167c0100000000000000000000000000000000000000000000000000000000028152600401602060405180830381600087803b1580156115a757600080fd5b505af11580156115bb573d6000803e3d6000fd5b505050506040513d60208110156115d157600080fd5b81019080805190602001909291905050509150600034141561191e57600260009054906101000a900473ffffffffffffffffffffffffffffffffffffffff1673ffffffffffffffffffffffffffffffffffffffff168373ffffffffffffffffffffffffffffffffffffffff16141561180257600260009054906101000a900473ffffffffffffffffffffffffffffffffffffffff1673ffffffffffffffffffffffffffffffffffffffff1663a24835d1338d6040518363ffffffff167c0100000000000000000000000000000000000000000000000000000000028152600401808373ffffffffffffffffffffffffffffffffffffffff1673ffffffffffffffffffffffffffffffffffffffff16815260200182815260200192505050600060405180830381600087803b15801561170857600080fd5b505af115801561171c573d6000803e3d6000fd5b50505050600260009054906101000a900473ffffffffffffffffffffffffffffffffffffffff1673ffffffffffffffffffffffffffffffffffffffff1663867904b4838d6040518363ffffffff167c0100000000000000000000000000000000000000000000000000000000028152600401808373ffffffffffffffffffffffffffffffffffffffff1673ffffffffffffffffffffffffffffffffffffffff16815260200182815260200192505050600060405180830381600087803b1580156117e557600080fd5b505af11580156117f9573d6000803e3d6000fd5b5050505061191d565b8273ffffffffffffffffffffffffffffffffffffffff166323b872dd33848e6040518463ffffffff167c0100000000000000000000000000000000000000000000000000000000028152600401808473ffffffffffffffffffffffffffffffffffffffff1673ffffffffffffffffffffffffffffffffffffffff1681526020018373ffffffffffffffffffffffffffffffffffffffff1673ffffffffffffffffffffffffffffffffffffffff1681526020018281526020019350505050602060405180830381600087803b1580156118d957600080fd5b505af11580156118ed573d6000803e3d6000fd5b505050506040513d602081101561190357600080fd5b8101908080519060200190929190505050151561191c57fe5b5b5b8173ffffffffffffffffffffffffffffffffffffffff16631134269a348e8e8e338f8f8f8f8f6040518b63ffffffff167c010000000000000000000000000000000000000000000000000000000002815260040180806020018a81526020018981526020018873ffffffffffffffffffffffffffffffffffffffff1673ffffffffffffffffffffffffffffffffffffffff1681526020018781526020018681526020018560ff1660ff1681526020018460001916600019168152602001836000191660001916815260200182810382528b818151815260200191508051906020019060200280838360005b83811015611a24578082015181840152602081019050611a09565b505050509050019a50505050505050505050506020604051808303818588803b158015611a5057600080fd5b505af1158015611a64573d6000803e3d6000fd5b50505050506040513d6020811015611a7b57600080fd5b8101908080519060200190929190505050935050505098975050505050505050565b600881815481101515611aac57fe5b906000526020600020016000915054906101000a900473ffffffffffffffffffffffffffffffffffffffff1681565b6000808373ffffffffffffffffffffffffffffffffffffffff168573ffffffffffffffffffffffffffffffffffffffff1614151515611b1957600080fd5b600260009054906101000a900473ffffffffffffffffffffffffffffffffffffffff1673ffffffffffffffffffffffffffffffffffffffff168473ffffffffffffffffffffffffffffffffffffffff161415611b8057611b79858461348f565b9150611cca565b600260009054906101000a900473ffffffffffffffffffffffffffffffffffffffff1673ffffffffffffffffffffffffffffffffffffffff168573ffffffffffffffffffffffffffffffffffffffff161415611be757611be08484612f5b565b9150611cca565b611bf1858461348f565b9050611cc78482611cc2600260009054906101000a900473ffffffffffffffffffffffffffffffffffffffff1673ffffffffffffffffffffffffffffffffffffffff166318160ddd6040518163ffffffff167c0100000000000000000000000000000000000000000000000000000000028152600401602060405180830381600087803b158015611c8157600080fd5b505af1158015611c95573d6000803e3d6000fd5b505050506040513d6020811015611cab57600080fd5b81019080805190602001909291905050508561416e565b61418c565b91505b509392505050565b6000809054906101000a900473ffffffffffffffffffffffffffffffffffffffff1673ffffffffffffffffffffffffffffffffffffffff163373ffffffffffffffffffffffffffffffffffffffff16141515611d2a57fe5b600260009054906101000a900473ffffffffffffffffffffffffffffffffffffffff1673ffffffffffffffffffffffffffffffffffffffff1663f2fde38b826040518263ffffffff167c0100000000000000000000000000000000000000000000000000000000028152600401808273ffffffffffffffffffffffffffffffffffffffff1673ffffffffffffffffffffffffffffffffffffffff168152602001915050600060405180830381600087803b158015611de757600080fd5b505af1158015611dfb573d6000803e3d6000fd5b5050505050565b6000809054906101000a900473ffffffffffffffffffffffffffffffffffffffff1673ffffffffffffffffffffffffffffffffffffffff163373ffffffffffffffffffffffffffffffffffffffff161480611eaa5750600360009054906101000a900473ffffffffffffffffffffffffffffffffffffffff1673ffffffffffffffffffffffffffffffffffffffff163373ffffffffffffffffffffffffffffffffffffffff16145b1515611eb557600080fd5b8015600b600c6101000a81548160ff02191690831515021790555050565b6000809054906101000a900473ffffffffffffffffffffffffffffffffffffffff1673ffffffffffffffffffffffffffffffffffffffff163373ffffffffffffffffffffffffffffffffffffffff16141515611f2b57fe5b80600073ffffffffffffffffffffffffffffffffffffffff168173ffffffffffffffffffffffffffffffffffffffff1614151515611f6857600080fd5b813073ffffffffffffffffffffffffffffffffffffffff168173ffffffffffffffffffffffffffffffffffffffff1614151515611fa457600080fd5b82600760006101000a81548173ffffffffffffffffffffffffffffffffffffffff021916908373ffffffffffffffffffffffffffffffffffffffff160217905550505050565b600760009054906101000a900473ffffffffffffffffffffffffffffffffffffffff1681565b600080600760009054906101000a900473ffffffffffffffffffffffffffffffffffffffff1673ffffffffffffffffffffffffffffffffffffffff1663c31e05476040518163ffffffff167c0100000000000000000000000000000000000000000000000000000000028152600401602060405180830381600087803b15801561209957600080fd5b505af11580156120ad573d6000803e3d6000fd5b505050506040513d60208110156120c357600080fd5b810190808051906020019092919050505073ffffffffffffffffffffffffffffffffffffffff163373ffffffffffffffffffffffffffffffffffffffff1614151561210d57600080fd5b8473ffffffffffffffffffffffffffffffffffffffff168673ffffffffffffffffffffffffffffffffffffffff161415151561214857600080fd5b600260009054906101000a900473ffffffffffffffffffffffffffffffffffffffff1673ffffffffffffffffffffffffffffffffffffffff168573ffffffffffffffffffffffffffffffffffffffff1614156121b0576121a986858561450b565b9150612234565b600260009054906101000a900473ffffffffffffffffffffffffffffffffffffffff1673ffffffffffffffffffffffffffffffffffffffff168673ffffffffffffffffffffffffffffffffffffffff161415612218576122118585856147e0565b9150612234565b6122248685600161450b565b90506122318582856147e0565b91505b50949350505050565b6000620f424063ffffffff1661226b83600b60089054906101000a900463ffffffff1663ffffffff16614c7a565b81151561227457fe5b049050919050565b6000809054906101000a900473ffffffffffffffffffffffffffffffffffffffff1673ffffffffffffffffffffffffffffffffffffffff163373ffffffffffffffffffffffffffffffffffffffff161415156122d457fe5b600260009054906101000a900473ffffffffffffffffffffffffffffffffffffffff1673ffffffffffffffffffffffffffffffffffffffff166379ba50976040518163ffffffff167c0100000000000000000000000000000000000000000000000000000000028152600401600060405180830381600087803b15801561235a57600080fd5b505af115801561236e573d6000803e3d6000fd5b50505050565b60068054600181600116156101000203166002900480601f01602080910402602001604051908101604052809291908181526020018280546001816001161561010002031660029004801561240a5780601f106123df5761010080835404028352916020019161240a565b820191906000526020600020905b8154815290600101906020018083116123ed57829003601f168201915b505050505081565b6000809054906101000a900473ffffffffffffffffffffffffffffffffffffffff1673ffffffffffffffffffffffffffffffffffffffff163373ffffffffffffffffffffffffffffffffffffffff1614151561246a57fe5b3073ffffffffffffffffffffffffffffffffffffffff16600260009054906101000a900473ffffffffffffffffffffffffffffffffffffffff1673ffffffffffffffffffffffffffffffffffffffff16638da5cb5b6040518163ffffffff167c0100000000000000000000000000000000000000000000000000000000028152600401602060405180830381600087803b15801561250757600080fd5b505af115801561251b573d6000803e3d6000fd5b505050506040513d602081101561253157600080fd5b810190808051906020019092919050505073ffffffffffffffffffffffffffffffffffffffff161415151561256257fe5b82600073ffffffffffffffffffffffffffffffffffffffff168173ffffffffffffffffffffffffffffffffffffffff161415151561259f57600080fd5b833073ffffffffffffffffffffffffffffffffffffffff168173ffffffffffffffffffffffffffffffffffffffff16141515156125db57600080fd5b8360008163ffffffff161180156126015750620f424063ffffffff168163ffffffff1611155b151561260c57600080fd5b600260009054906101000a900473ffffffffffffffffffffffffffffffffffffffff1673ffffffffffffffffffffffffffffffffffffffff168673ffffffffffffffffffffffffffffffffffffffff16141580156126b75750600a60008773ffffffffffffffffffffffffffffffffffffffff1673ffffffffffffffffffffffffffffffffffffffff16815260200190815260200160002060010160069054906101000a900460ff16155b80156126e65750620f424063ffffffff1685600b60009054906101000a900463ffffffff160163ffffffff1611155b15156126f157600080fd5b6000600a60008873ffffffffffffffffffffffffffffffffffffffff1673ffffffffffffffffffffffffffffffffffffffff1681526020019081526020016000206000018190555084600a60008873ffffffffffffffffffffffffffffffffffffffff1673ffffffffffffffffffffffffffffffffffffffff16815260200190815260200160002060010160006101000a81548163ffffffff021916908363ffffffff16021790555083600a60008873ffffffffffffffffffffffffffffffffffffffff1673ffffffffffffffffffffffffffffffffffffffff16815260200190815260200160002060010160046101000a81548160ff0219169083151502179055506001600a60008873ffffffffffffffffffffffffffffffffffffffff1673ffffffffffffffffffffffffffffffffffffffff16815260200190815260200160002060010160056101000a81548160ff0219169083151502179055506001600a60008873ffffffffffffffffffffffffffffffffffffffff1673ffffffffffffffffffffffffffffffffffffffff16815260200190815260200160002060010160066101000a81548160ff02191690831515021790555060088690806001815401808255809150509060018203906000526020600020016000909192909190916101000a81548173ffffffffffffffffffffffffffffffffffffffff021916908373ffffffffffffffffffffffffffffffffffffffff1602179055505084600b60008282829054906101000a900463ffffffff160192506101000a81548163ffffffff021916908363ffffffff160217905550505050505050565b6000809054906101000a900473ffffffffffffffffffffffffffffffffffffffff1673ffffffffffffffffffffffffffffffffffffffff163373ffffffffffffffffffffffffffffffffffffffff161415156129a657fe5b600260009054906101000a900473ffffffffffffffffffffffffffffffffffffffff1673ffffffffffffffffffffffffffffffffffffffff16635e35359e8484846040518463ffffffff167c0100000000000000000000000000000000000000000000000000000000028152600401808473ffffffffffffffffffffffffffffffffffffffff1673ffffffffffffffffffffffffffffffffffffffff1681526020018373ffffffffffffffffffffffffffffffffffffffff1673ffffffffffffffffffffffffffffffffffffffff1681526020018281526020019350505050600060405180830381600087803b158015612a9f57600080fd5b505af1158015612ab3573d6000803e3d6000fd5b50505050505050565b600460009054906101000a900473ffffffffffffffffffffffffffffffffffffffff1681565b600360009054906101000a900473ffffffffffffffffffffffffffffffffffffffff1681565b6000809054906101000a900473ffffffffffffffffffffffffffffffffffffffff1673ffffffffffffffffffffffffffffffffffffffff163373ffffffffffffffffffffffffffffffffffffffff16141515612b6057fe5b6000600981612b6f919061518e565b50565b6000809054906101000a900473ffffffffffffffffffffffffffffffffffffffff1673ffffffffffffffffffffffffffffffffffffffff163373ffffffffffffffffffffffffffffffffffffffff16141515612bca57fe5b81600a60008273ffffffffffffffffffffffffffffffffffffffff1673ffffffffffffffffffffffffffffffffffffffff16815260200190815260200160002060010160069054906101000a900460ff161515612c2657600080fd5b8115600a60008573ffffffffffffffffffffffffffffffffffffffff1673ffffffffffffffffffffffffffffffffffffffff16815260200190815260200160002060010160056101000a81548160ff021916908315150217905550505050565b60058054600181600116156101000203166002900480601f016020809104026020016040519081016040528092919081815260200182805460018160011615610100020316600290048015612d1c5780601f10612cf157610100808354040283529160200191612d1c565b820191906000526020600020905b815481529060010190602001808311612cff57829003601f168201915b505050505081565b600b60089054906101000a900463ffffffff1681565b6000809054906101000a900473ffffffffffffffffffffffffffffffffffffffff1673ffffffffffffffffffffffffffffffffffffffff163373ffffffffffffffffffffffffffffffffffffffff16141515612d9257fe5b82600073ffffffffffffffffffffffffffffffffffffffff168173ffffffffffffffffffffffffffffffffffffffff1614151515612dcf57600080fd5b82600073ffffffffffffffffffffffffffffffffffffffff168173ffffffffffffffffffffffffffffffffffffffff1614151515612e0c57600080fd5b833073ffffffffffffffffffffffffffffffffffffffff168173ffffffffffffffffffffffffffffffffffffffff1614151515612e4857600080fd5b8573ffffffffffffffffffffffffffffffffffffffff1663a9059cbb86866040518363ffffffff167c0100000000000000000000000000000000000000000000000000000000028152600401808373ffffffffffffffffffffffffffffffffffffffff1673ffffffffffffffffffffffffffffffffffffffff16815260200182815260200192505050602060405180830381600087803b158015612eeb57600080fd5b505af1158015612eff573d6000803e3d6000fd5b505050506040513d6020811015612f1557600080fd5b81019080805190602001909291905050501515612f2e57fe5b505050505050565b6000612f4485858585612010565b9050949350505050565b6000600880549050905090565b60006130288383600260009054906101000a900473ffffffffffffffffffffffffffffffffffffffff1673ffffffffffffffffffffffffffffffffffffffff166318160ddd6040518163ffffffff167c0100000000000000000000000000000000000000000000000000000000028152600401602060405180830381600087803b158015612fe857600080fd5b505af1158015612ffc573d6000803e3d6000fd5b505050506040513d602081101561301257600080fd5b810190808051906020019092919050505061418c565b905092915050565b60006060604051908101604052808673ffffffffffffffffffffffffffffffffffffffff1673ffffffffffffffffffffffffffffffffffffffff168152602001600260009054906101000a900473ffffffffffffffffffffffffffffffffffffffff1673ffffffffffffffffffffffffffffffffffffffff1673ffffffffffffffffffffffffffffffffffffffff1681526020018573ffffffffffffffffffffffffffffffffffffffff1673ffffffffffffffffffffffffffffffffffffffff16815250600c9060036131049291906151ba565b50613196600c80548060200260200160405190810160405280929190818152602001828054801561318a57602002820191906000526020600020905b8160009054906101000a900473ffffffffffffffffffffffffffffffffffffffff1673ffffffffffffffffffffffffffffffffffffffff1681526020019060010190808311613140575b505050505084846111f3565b9050949350505050565b600160009054906101000a900473ffffffffffffffffffffffffffffffffffffffff1673ffffffffffffffffffffffffffffffffffffffff163373ffffffffffffffffffffffffffffffffffffffff161415156131fc57600080fd5b600160009054906101000a900473ffffffffffffffffffffffffffffffffffffffff1673ffffffffffffffffffffffffffffffffffffffff166000809054906101000a900473ffffffffffffffffffffffffffffffffffffffff1673ffffffffffffffffffffffffffffffffffffffff167f343765429aea5a34b3ff6a3785a98a5abb2597aca87bfbb58632c173d585373a60405160405180910390a3600160009054906101000a900473ffffffffffffffffffffffffffffffffffffffff166000806101000a81548173ffffffffffffffffffffffffffffffffffffffff021916908373ffffffffffffffffffffffffffffffffffffffff1602179055506000600160006101000a81548173ffffffffffffffffffffffffffffffffffffffff021916908373ffffffffffffffffffffffffffffffffffffffff160217905550565b6000809054906101000a900473ffffffffffffffffffffffffffffffffffffffff1673ffffffffffffffffffffffffffffffffffffffff163373ffffffffffffffffffffffffffffffffffffffff1614151561339757fe5b600260009054906101000a900473ffffffffffffffffffffffffffffffffffffffff1673ffffffffffffffffffffffffffffffffffffffff16631608f18f826040518263ffffffff167c01000000000000000000000000000000000000000000000000000000000281526004018082151515158152602001915050600060405180830381600087803b15801561342c57600080fd5b505af1158015613440573d6000803e3d6000fd5b5050505050565b6000809054906101000a900473ffffffffffffffffffffffffffffffffffffffff1681565b6000600980549050905090565b600b60049054906101000a900463ffffffff1681565b6000806000806000803073ffffffffffffffffffffffffffffffffffffffff16600260009054906101000a900473ffffffffffffffffffffffffffffffffffffffff1673ffffffffffffffffffffffffffffffffffffffff16638da5cb5b6040518163ffffffff167c0100000000000000000000000000000000000000000000000000000000028152600401602060405180830381600087803b15801561353557600080fd5b505af1158015613549573d6000803e3d6000fd5b505050506040513d602081101561355f57600080fd5b810190808051906020019092919050505073ffffffffffffffffffffffffffffffffffffffff1614151561358f57fe5b87600a60008273ffffffffffffffffffffffffffffffffffffffff1673ffffffffffffffffffffffffffffffffffffffff16815260200190815260200160002060010160069054906101000a900460ff1615156135eb57600080fd5b600a60008a73ffffffffffffffffffffffffffffffffffffffff1673ffffffffffffffffffffffffffffffffffffffff16815260200190815260200160002095508560010160059054906101000a900460ff16151561364957600080fd5b600260009054906101000a900473ffffffffffffffffffffffffffffffffffffffff1673ffffffffffffffffffffffffffffffffffffffff166318160ddd6040518163ffffffff167c0100000000000000000000000000000000000000000000000000000000028152600401602060405180830381600087803b1580156136cf57600080fd5b505af11580156136e3573d6000803e3d6000fd5b505050506040513d60208110156136f957600080fd5b8101908080519060200190929190505050945061371589613b75565b9350600760009054906101000a900473ffffffffffffffffffffffffffffffffffffffff1673ffffffffffffffffffffffffffffffffffffffff16634b75f54f6040518163ffffffff167c0100000000000000000000000000000000000000000000000000000000028152600401602060405180830381600087803b15801561379d57600080fd5b505af11580156137b1573d6000803e3d6000fd5b505050506040513d60208110156137c757600080fd5b810190808051906020019092919050505073ffffffffffffffffffffffffffffffffffffffff166329a00e7c86868960010160009054906101000a900463ffffffff168c6040518563ffffffff167c0100000000000000000000000000000000000000000000000000000000028152600401808581526020018481526020018363ffffffff1663ffffffff168152602001828152602001945050505050602060405180830381600087803b15801561387e57600080fd5b505af1158015613892573d6000803e3d6000fd5b505050506040513d60208110156138a857600080fd5b810190808051906020019092919050505092506138c48361223d565b91506138d08383614cad565b965050505050505092915050565b600060016138ea612f4e565b01905090565b600b600c9054906101000a900460ff1681565b600460009054906101000a900473ffffffffffffffffffffffffffffffffffffffff1673ffffffffffffffffffffffffffffffffffffffff163373ffffffffffffffffffffffffffffffffffffffff1614151561395f57600080fd5b600460009054906101000a900473ffffffffffffffffffffffffffffffffffffffff1673ffffffffffffffffffffffffffffffffffffffff16600360009054906101000a900473ffffffffffffffffffffffffffffffffffffffff1673ffffffffffffffffffffffffffffffffffffffff167fbe4cc281795971a471c980e842627a7f1ea3892ddfce8c5b6357cd2611c1973260405160405180910390a3600460009054906101000a900473ffffffffffffffffffffffffffffffffffffffff16600360006101000a81548173ffffffffffffffffffffffffffffffffffffffff021916908373ffffffffffffffffffffffffffffffffffffffff1602179055506000600460006101000a81548173ffffffffffffffffffffffffffffffffffffffff021916908373ffffffffffffffffffffffffffffffffffffffff160217905550565b6000809054906101000a900473ffffffffffffffffffffffffffffffffffffffff1673ffffffffffffffffffffffffffffffffffffffff163373ffffffffffffffffffffffffffffffffffffffff16141515613afc57fe5b8060028151118015613b1057506015815111155b8015613b295750600160028251811515613b2657fe5b06145b1515613b3457600080fd5b8160099080519060200190613b4a929190615244565b505050565b600160009054906101000a900473ffffffffffffffffffffffffffffffffffffffff1681565b60008082600a60008273ffffffffffffffffffffffffffffffffffffffff1673ffffffffffffffffffffffffffffffffffffffff16815260200190815260200160002060010160069054906101000a900460ff161515613bd457600080fd5b600a60008573ffffffffffffffffffffffffffffffffffffffff1673ffffffffffffffffffffffffffffffffffffffff16815260200190815260200160002091508160010160049054906101000a900460ff16613d06578373ffffffffffffffffffffffffffffffffffffffff166370a08231306040518263ffffffff167c0100000000000000000000000000000000000000000000000000000000028152600401808273ffffffffffffffffffffffffffffffffffffffff1673ffffffffffffffffffffffffffffffffffffffff168152602001915050602060405180830381600087803b158015613cc657600080fd5b505af1158015613cda573d6000803e3d6000fd5b505050506040513d6020811015613cf057600080fd5b8101908080519060200190929190505050613d0c565b81600001545b92505050919050565b600360009054906101000a900473ffffffffffffffffffffffffffffffffffffffff1673ffffffffffffffffffffffffffffffffffffffff163373ffffffffffffffffffffffffffffffffffffffff16141515613d6e57fe5b600360009054906101000a900473ffffffffffffffffffffffffffffffffffffffff1673ffffffffffffffffffffffffffffffffffffffff168173ffffffffffffffffffffffffffffffffffffffff1614151515613dcb57600080fd5b80600460006101000a81548173ffffffffffffffffffffffffffffffffffffffff021916908373ffffffffffffffffffffffffffffffffffffffff16021790555050565b600981815481101515613e1e57fe5b906000526020600020016000915054906101000a900473ffffffffffffffffffffffffffffffffffffffff1681565b6000809054906101000a900473ffffffffffffffffffffffffffffffffffffffff1673ffffffffffffffffffffffffffffffffffffffff163373ffffffffffffffffffffffffffffffffffffffff161480613ef55750600360009054906101000a900473ffffffffffffffffffffffffffffffffffffffff1673ffffffffffffffffffffffffffffffffffffffff163373ffffffffffffffffffffffffffffffffffffffff16145b1515613f0057600080fd5b8060008163ffffffff1610158015613f365750600b60049054906101000a900463ffffffff1663ffffffff168163ffffffff1611155b1515613f4157600080fd5b7f81cd2ffb37dd237c0e4e2a3de5265fcf9deb43d3e7801e80db9f1ccfba7ee600600b60089054906101000a900463ffffffff1683604051808363ffffffff1663ffffffff1681526020018263ffffffff1663ffffffff1681526020019250505060405180910390a181600b60086101000a81548163ffffffff021916908363ffffffff1602179055505050565b6000808261ffff16141561400757600260009054906101000a900473ffffffffffffffffffffffffffffffffffffffff16905061404b565b60086001830361ffff1681548110151561401d57fe5b9060005260206000200160009054906101000a900473ffffffffffffffffffffffffffffffffffffffff1690505b919050565b6000809054906101000a900473ffffffffffffffffffffffffffffffffffffffff1673ffffffffffffffffffffffffffffffffffffffff163373ffffffffffffffffffffffffffffffffffffffff161415156140a857fe5b6000809054906101000a900473ffffffffffffffffffffffffffffffffffffffff1673ffffffffffffffffffffffffffffffffffffffff168173ffffffffffffffffffffffffffffffffffffffff161415151561410457600080fd5b80600160006101000a81548173ffffffffffffffffffffffffffffffffffffffff021916908373ffffffffffffffffffffffffffffffffffffffff16021790555050565b600260009054906101000a900473ffffffffffffffffffffffffffffffffffffffff1681565b600080828401905083811015151561418257fe5b8091505092915050565b60008060008060003073ffffffffffffffffffffffffffffffffffffffff16600260009054906101000a900473ffffffffffffffffffffffffffffffffffffffff1673ffffffffffffffffffffffffffffffffffffffff16638da5cb5b6040518163ffffffff167c0100000000000000000000000000000000000000000000000000000000028152600401602060405180830381600087803b15801561423157600080fd5b505af1158015614245573d6000803e3d6000fd5b505050506040513d602081101561425b57600080fd5b810190808051906020019092919050505073ffffffffffffffffffffffffffffffffffffffff1614151561428b57fe5b87600a60008273ffffffffffffffffffffffffffffffffffffffff1673ffffffffffffffffffffffffffffffffffffffff16815260200190815260200160002060010160069054906101000a900460ff1615156142e757600080fd5b866000811115156142f757600080fd5b600a60008b73ffffffffffffffffffffffffffffffffffffffff1673ffffffffffffffffffffffffffffffffffffffff16815260200190815260200160002095506143418a613b75565b9450600760009054906101000a900473ffffffffffffffffffffffffffffffffffffffff1673ffffffffffffffffffffffffffffffffffffffff16634b75f54f6040518163ffffffff167c0100000000000000000000000000000000000000000000000000000000028152600401602060405180830381600087803b1580156143c957600080fd5b505af11580156143dd573d6000803e3d6000fd5b505050506040513d60208110156143f357600080fd5b810190808051906020019092919050505073ffffffffffffffffffffffffffffffffffffffff166349f9b0f789878960010160009054906101000a900463ffffffff168d6040518563ffffffff167c0100000000000000000000000000000000000000000000000000000000028152600401808581526020018481526020018363ffffffff1663ffffffff168152602001828152602001945050505050602060405180830381600087803b1580156144aa57600080fd5b505af11580156144be573d6000803e3d6000fd5b505050506040513d60208110156144d457600080fd5b810190808051906020019092919050505093506144f08461223d565b92506144fc8484614cad565b96505050505050509392505050565b6000806000600b600c9054906101000a900460ff16151561452857fe5b8360008111151561453857600080fd5b614542878761348f565b9250600083141580156145555750848310155b151561456057600080fd5b600a60008873ffffffffffffffffffffffffffffffffffffffff1673ffffffffffffffffffffffffffffffffffffffff16815260200190815260200160002091508160010160049054906101000a900460ff16156145cf576145c682600001548761416e565b82600001819055505b8673ffffffffffffffffffffffffffffffffffffffff166323b872dd3330896040518463ffffffff167c0100000000000000000000000000000000000000000000000000000000028152600401808473ffffffffffffffffffffffffffffffffffffffff1673ffffffffffffffffffffffffffffffffffffffff1681526020018373ffffffffffffffffffffffffffffffffffffffff1673ffffffffffffffffffffffffffffffffffffffff1681526020018281526020019350505050602060405180830381600087803b1580156146a657600080fd5b505af11580156146ba573d6000803e3d6000fd5b505050506040513d60208110156146d057600080fd5b810190808051906020019092919050505015156146e957fe5b600260009054906101000a900473ffffffffffffffffffffffffffffffffffffffff1673ffffffffffffffffffffffffffffffffffffffff1663867904b433856040518363ffffffff167c0100000000000000000000000000000000000000000000000000000000028152600401808373ffffffffffffffffffffffffffffffffffffffff1673ffffffffffffffffffffffffffffffffffffffff16815260200182815260200192505050600060405180830381600087803b1580156147ae57600080fd5b505af11580156147c2573d6000803e3d6000fd5b505050506147d38787856001614cc6565b8293505050509392505050565b6000806000806000600b600c9054906101000a900460ff16151561480057fe5b8560008111151561481057600080fd5b600260009054906101000a900473ffffffffffffffffffffffffffffffffffffffff1673ffffffffffffffffffffffffffffffffffffffff166370a08231336040518263ffffffff167c0100000000000000000000000000000000000000000000000000000000028152600401808273ffffffffffffffffffffffffffffffffffffffff1673ffffffffffffffffffffffffffffffffffffffff168152602001915050602060405180830381600087803b1580156148cd57600080fd5b505af11580156148e1573d6000803e3d6000fd5b505050506040513d60208110156148f757600080fd5b8101908080519060200190929190505050881115151561491657600080fd5b6149208989612f5b565b9450600085141580156149335750868510155b151561493e57600080fd5b600260009054906101000a900473ffffffffffffffffffffffffffffffffffffffff1673ffffffffffffffffffffffffffffffffffffffff166318160ddd6040518163ffffffff167c0100000000000000000000000000000000000000000000000000000000028152600401602060405180830381600087803b1580156149c457600080fd5b505af11580156149d8573d6000803e3d6000fd5b505050506040513d60208110156149ee57600080fd5b81019080805190602001909291905050509350614a0a89613b75565b925082851080614a2457508285148015614a2357508388145b5b1515614a2c57fe5b600a60008a73ffffffffffffffffffffffffffffffffffffffff1673ffffffffffffffffffffffffffffffffffffffff16815260200190815260200160002091508160010160049054906101000a900460ff1615614a9b57614a92826000015486614cad565b82600001819055505b600260009054906101000a900473ffffffffffffffffffffffffffffffffffffffff1673ffffffffffffffffffffffffffffffffffffffff1663a24835d1338a6040518363ffffffff167c0100000000000000000000000000000000000000000000000000000000028152600401808373ffffffffffffffffffffffffffffffffffffffff1673ffffffffffffffffffffffffffffffffffffffff16815260200182815260200192505050600060405180830381600087803b158015614b6057600080fd5b505af1158015614b74573d6000803e3d6000fd5b505050508873ffffffffffffffffffffffffffffffffffffffff1663a9059cbb33876040518363ffffffff167c0100000000000000000000000000000000000000000000000000000000028152600401808373ffffffffffffffffffffffffffffffffffffffff1673ffffffffffffffffffffffffffffffffffffffff16815260200182815260200192505050602060405180830381600087803b158015614c1b57600080fd5b505af1158015614c2f573d6000803e3d6000fd5b505050506040513d6020811015614c4557600080fd5b81019080805190602001909291905050501515614c5e57fe5b614c6b8989876000614cc6565b84955050505050509392505050565b60008082840290506000841480614c9b5750828482811515614c9857fe5b04145b1515614ca357fe5b8091505092915050565b6000818310151515614cbb57fe5b818303905092915050565b600080600080600080600a60008b73ffffffffffffffffffffffffffffffffffffffff1673ffffffffffffffffffffffffffffffffffffffff1681526020019081526020016000209550614d2b614d1c8b613b75565b620f424063ffffffff16614c7a565b9450614e11600260009054906101000a900473ffffffffffffffffffffffffffffffffffffffff1673ffffffffffffffffffffffffffffffffffffffff166318160ddd6040518163ffffffff167c0100000000000000000000000000000000000000000000000000000000028152600401602060405180830381600087803b158015614db657600080fd5b505af1158015614dca573d6000803e3d6000fd5b505050506040513d6020811015614de057600080fd5b81019080805190602001909291905050508760010160009054906101000a900463ffffffff1663ffffffff16614c7a565b9350600260009054906101000a900473ffffffffffffffffffffffffffffffffffffffff1673ffffffffffffffffffffffffffffffffffffffff1663313ce5676040518163ffffffff167c0100000000000000000000000000000000000000000000000000000000028152600401602060405180830381600087803b158015614e9957600080fd5b505af1158015614ead573d6000803e3d6000fd5b505050506040513d6020811015614ec357600080fd5b810190808051906020019092919050505092508973ffffffffffffffffffffffffffffffffffffffff1663313ce5676040518163ffffffff167c0100000000000000000000000000000000000000000000000000000000028152600401602060405180830381600087803b158015614f3a57600080fd5b505af1158015614f4e573d6000803e3d6000fd5b505050506040513d6020811015614f6457600080fd5b810190808051906020019092919050505091508160ff168360ff16141515614fc3578160ff168360ff161115614fad57614fa68583850360ff16600a0a614c7a565b9450614fc2565b614fbf8484840360ff16600a0a614c7a565b93505b5b614fcc8861223d565b90507f80000000000000000000000000000000000000000000000000000000000000008111151515614ffa57fe5b86156150c3573373ffffffffffffffffffffffffffffffffffffffff16600260009054906101000a900473ffffffffffffffffffffffffffffffffffffffff1673ffffffffffffffffffffffffffffffffffffffff168b73ffffffffffffffffffffffffffffffffffffffff167fcee13e282037fd063de72c4cf7955988112510b046cda38c12c47862c1785e7b8c8c868b8b604051808681526020018581526020018481526020018381526020018281526020019550505050505060405180910390a4615182565b3373ffffffffffffffffffffffffffffffffffffffff168a73ffffffffffffffffffffffffffffffffffffffff16600260009054906101000a900473ffffffffffffffffffffffffffffffffffffffff1673ffffffffffffffffffffffffffffffffffffffff167fcee13e282037fd063de72c4cf7955988112510b046cda38c12c47862c1785e7b8c8c868a8c604051808681526020018581526020018481526020018381526020018281526020019550505050505060405180910390a45b50505050505050505050565b8154818355818111156151b5578183600052602060002091820191016151b491906152ce565b5b505050565b828054828255906000526020600020908101928215615233579160200282015b828111156152325782518260006101000a81548173ffffffffffffffffffffffffffffffffffffffff021916908373ffffffffffffffffffffffffffffffffffffffff160217905550916020019190600101906151da565b5b50905061524091906152f3565b5090565b8280548282559060005260206000209081019282156152bd579160200282015b828111156152bc5782518260006101000a81548173ffffffffffffffffffffffffffffffffffffffff021916908373ffffffffffffffffffffffffffffffffffffffff16021790555091602001919060010190615264565b5b5090506152ca91906152f3565b5090565b6152f091905b808211156152ec5760008160009055506001016152d4565b5090565b90565b61533391905b8082111561532f57600081816101000a81549073ffffffffffffffffffffffffffffffffffffffff0219169055506001016152f9565b5090565b905600a165627a7a72305820713c7923a9b9573e1fb11636626847acfefc0595e71bbf5f42340dbe2c10d1170029a165627a7a723058200e15220555626430eaa06312830f9b1d43b0814213fdb0e22a27fa4e717f433a0029",
  "source": "pragma solidity ^0.4.18;\nimport './BancorConverter.sol';\nimport './interfaces/IBancorConverterFactory.sol';\n\n/*\n    Bancor Converter Factory\n*/\ncontract BancorConverterFactory is IBancorConverterFactory {\n\n    // triggered when a new converter is created\n    event NewConverter(address indexed _converter, address indexed _owner);\n\n    /**\n        @dev constructor\n    */\n    function BancorConverterFactory()\n        public\n    {}\n\n    /**\n        @dev creates a new converter with the given arguments and transfers\n        the ownership and management to the sender.\n\n        @param  _token              smart token governed by the converter\n        @param  _extensions         address of a bancor converter extensions contract\n        @param  _maxConversionFee   maximum conversion fee, represented in ppm\n        @param  _connectorToken     optional, initial connector, allows defining the first connector at deployment time\n        @param  _connectorWeight    optional, weight for the initial connector\n\n        @return a new converter\n    */\n    function createConverter(\n        ISmartToken _token,\n        IBancorConverterExtensions _extensions,\n        uint32 _maxConversionFee,\n        IERC20Token _connectorToken,\n        uint32 _connectorWeight\n    ) \n        public \n        returns(address converterAddress) \n    {\n        BancorConverter converter = new BancorConverter(\n            _token,\n            _extensions,\n            _maxConversionFee,\n            _connectorToken,\n            _connectorWeight\n        );\n\n        converter.transferOwnership(msg.sender);\n        converter.transferManagement(msg.sender);\n\n        address _converterAddress = address(converter);\n        NewConverter(_converterAddress, msg.sender);\n        return _converterAddress;\n    }\n}\n",
  "sourcePath": "D:\\EthereumProjects\\work\\mulaProtocol\\contracts\\bancor\\contracts\\BancorConverterFactory.sol",
  "compiler": {
    "name": "solc",
    "version": "0.4.23+commit.124ca40d.Emscripten.clang"
  },
  "schemaVersion": "2.0.0",
  "updatedAt": "2018-05-02T11:24:08.441Z"
}