{
  "contractName": "BancorQuickConverter",
  "abi": [
    {
      "constant": true,
      "inputs": [],
      "name": "signerAddress",
      "outputs": [
        {
          "name": "",
          "type": "address"
        }
      ],
      "payable": false,
      "stateMutability": "view",
      "type": "function"
    },
    {
      "constant": false,
      "inputs": [
        {
          "name": "_token",
          "type": "address"
        },
        {
          "name": "_to",
          "type": "address"
        },
        {
          "name": "_amount",
          "type": "uint256"
        }
      ],
      "name": "withdrawTokens",
      "outputs": [],
      "payable": false,
      "stateMutability": "nonpayable",
      "type": "function"
    },
    {
      "constant": false,
      "inputs": [],
      "name": "acceptOwnership",
      "outputs": [],
      "payable": false,
      "stateMutability": "nonpayable",
      "type": "function"
    },
    {
      "constant": true,
      "inputs": [
        {
          "name": "",
          "type": "address"
        }
      ],
      "name": "etherTokens",
      "outputs": [
        {
          "name": "",
          "type": "bool"
        }
      ],
      "payable": false,
      "stateMutability": "view",
      "type": "function"
    },
    {
      "constant": true,
      "inputs": [
        {
          "name": "",
          "type": "bytes32"
        }
      ],
      "name": "conversionHashes",
      "outputs": [
        {
          "name": "",
          "type": "bool"
        }
      ],
      "payable": false,
      "stateMutability": "view",
      "type": "function"
    },
    {
      "constant": true,
      "inputs": [],
      "name": "owner",
      "outputs": [
        {
          "name": "",
          "type": "address"
        }
      ],
      "payable": false,
      "stateMutability": "view",
      "type": "function"
    },
    {
      "constant": true,
      "inputs": [],
      "name": "gasPriceLimit",
      "outputs": [
        {
          "name": "",
          "type": "address"
        }
      ],
      "payable": false,
      "stateMutability": "view",
      "type": "function"
    },
    {
      "constant": true,
      "inputs": [],
      "name": "newOwner",
      "outputs": [
        {
          "name": "",
          "type": "address"
        }
      ],
      "payable": false,
      "stateMutability": "view",
      "type": "function"
    },
    {
      "constant": false,
      "inputs": [
        {
          "name": "_newOwner",
          "type": "address"
        }
      ],
      "name": "transferOwnership",
      "outputs": [],
      "payable": false,
      "stateMutability": "nonpayable",
      "type": "function"
    },
    {
      "inputs": [],
      "payable": false,
      "stateMutability": "nonpayable",
      "type": "constructor"
    },
    {
      "anonymous": false,
      "inputs": [
        {
          "indexed": true,
          "name": "_prevOwner",
          "type": "address"
        },
        {
          "indexed": true,
          "name": "_newOwner",
          "type": "address"
        }
      ],
      "name": "OwnerUpdate",
      "type": "event"
    },
    {
      "constant": false,
      "inputs": [
        {
          "name": "_gasPriceLimit",
          "type": "address"
        }
      ],
      "name": "setGasPriceLimit",
      "outputs": [],
      "payable": false,
      "stateMutability": "nonpayable",
      "type": "function"
    },
    {
      "constant": false,
      "inputs": [
        {
          "name": "_signerAddress",
          "type": "address"
        }
      ],
      "name": "setSignerAddress",
      "outputs": [],
      "payable": false,
      "stateMutability": "nonpayable",
      "type": "function"
    },
    {
      "constant": false,
      "inputs": [
        {
          "name": "_token",
          "type": "address"
        },
        {
          "name": "_register",
          "type": "bool"
        }
      ],
      "name": "registerEtherToken",
      "outputs": [],
      "payable": false,
      "stateMutability": "nonpayable",
      "type": "function"
    },
    {
      "constant": false,
      "inputs": [
        {
          "name": "_path",
          "type": "address[]"
        },
        {
          "name": "_amount",
          "type": "uint256"
        },
        {
          "name": "_minReturn",
          "type": "uint256"
        },
        {
          "name": "_for",
          "type": "address"
        }
      ],
      "name": "convertFor",
      "outputs": [
        {
          "name": "",
          "type": "uint256"
        }
      ],
      "payable": true,
      "stateMutability": "payable",
      "type": "function"
    },
    {
      "constant": false,
      "inputs": [
        {
          "name": "_path",
          "type": "address[]"
        },
        {
          "name": "_amount",
          "type": "uint256"
        },
        {
          "name": "_minReturn",
          "type": "uint256"
        },
        {
          "name": "_for",
          "type": "address"
        },
        {
          "name": "_block",
          "type": "uint256"
        },
        {
          "name": "_nonce",
          "type": "uint256"
        },
        {
          "name": "_v",
          "type": "uint8"
        },
        {
          "name": "_r",
          "type": "bytes32"
        },
        {
          "name": "_s",
          "type": "bytes32"
        }
      ],
      "name": "convertForPrioritized",
      "outputs": [
        {
          "name": "",
          "type": "uint256"
        }
      ],
      "payable": true,
      "stateMutability": "payable",
      "type": "function"
    },
    {
      "constant": false,
      "inputs": [
        {
          "name": "_path",
          "type": "address[]"
        },
        {
          "name": "_amount",
          "type": "uint256"
        },
        {
          "name": "_minReturn",
          "type": "uint256"
        },
        {
          "name": "_for",
          "type": "address"
        }
      ],
      "name": "claimAndConvertFor",
      "outputs": [
        {
          "name": "",
          "type": "uint256"
        }
      ],
      "payable": false,
      "stateMutability": "nonpayable",
      "type": "function"
    },
    {
      "constant": false,
      "inputs": [
        {
          "name": "_path",
          "type": "address[]"
        },
        {
          "name": "_amount",
          "type": "uint256"
        },
        {
          "name": "_minReturn",
          "type": "uint256"
        }
      ],
      "name": "convert",
      "outputs": [
        {
          "name": "",
          "type": "uint256"
        }
      ],
      "payable": true,
      "stateMutability": "payable",
      "type": "function"
    },
    {
      "constant": false,
      "inputs": [
        {
          "name": "_path",
          "type": "address[]"
        },
        {
          "name": "_amount",
          "type": "uint256"
        },
        {
          "name": "_minReturn",
          "type": "uint256"
        }
      ],
      "name": "claimAndConvert",
      "outputs": [
        {
          "name": "",
          "type": "uint256"
        }
      ],
      "payable": false,
      "stateMutability": "nonpayable",
      "type": "function"
    }
  ],
  "bytecode": "0x60806040526000600260006101000a81548173ffffffffffffffffffffffffffffffffffffffff021916908373ffffffffffffffffffffffffffffffffffffffff16021790555034801561005257600080fd5b50336000806101000a81548173ffffffffffffffffffffffffffffffffffffffff021916908373ffffffffffffffffffffffffffffffffffffffff16021790555061200c806100a26000396000f3006080604052600436106100f1576000357c0100000000000000000000000000000000000000000000000000000000900463ffffffff16806302ef521e146100f6578063046dc166146101455780631134269a146101885780635b7633d0146102665780635e35359e146102bd57806379ba50971461032a5780638077ccf71461034157806389e63a601461039c5780638da5cb5b146103e5578063961a929c1461043c578063b1e9932b14610493578063c7ba24bc14610541578063c98fefed146105cf578063d4ee1d9014610670578063e33051dd146106c7578063f2fde38b1461070a578063f3898a971461074d575b600080fd5b34801561010257600080fd5b50610143600480360381019080803573ffffffffffffffffffffffffffffffffffffffff1690602001909291908035151590602001909291905050506107ce565b005b34801561015157600080fd5b50610186600480360381019080803573ffffffffffffffffffffffffffffffffffffffff1690602001909291905050506108fc565b005b610250600480360381019080803590602001908201803590602001908080602002602001604051908101604052809392919081815260200183836020028082843782019150505050505091929192908035906020019092919080359060200190929190803573ffffffffffffffffffffffffffffffffffffffff1690602001909291908035906020019092919080359060200190929190803560ff16906020019092919080356000191690602001909291908035600019169060200190929190505050610a13565b6040518082815260200191505060405180910390f35b34801561027257600080fd5b5061027b610e7a565b604051808273ffffffffffffffffffffffffffffffffffffffff1673ffffffffffffffffffffffffffffffffffffffff16815260200191505060405180910390f35b3480156102c957600080fd5b50610328600480360381019080803573ffffffffffffffffffffffffffffffffffffffff169060200190929190803573ffffffffffffffffffffffffffffffffffffffff16906020019092919080359060200190929190505050610ea0565b005b34801561033657600080fd5b5061033f61109c565b005b34801561034d57600080fd5b50610382600480360381019080803573ffffffffffffffffffffffffffffffffffffffff16906020019092919050505061123b565b604051808215151515815260200191505060405180910390f35b3480156103a857600080fd5b506103cb600480360381019080803560001916906020019092919050505061125b565b604051808215151515815260200191505060405180910390f35b3480156103f157600080fd5b506103fa61127b565b604051808273ffffffffffffffffffffffffffffffffffffffff1673ffffffffffffffffffffffffffffffffffffffff16815260200191505060405180910390f35b34801561044857600080fd5b506104516112a0565b604051808273ffffffffffffffffffffffffffffffffffffffff1673ffffffffffffffffffffffffffffffffffffffff16815260200191505060405180910390f35b34801561049f57600080fd5b5061052b600480360381019080803590602001908201803590602001908080602002602001604051908101604052809392919081815260200183836020028082843782019150505050505091929192908035906020019092919080359060200190929190803573ffffffffffffffffffffffffffffffffffffffff1690602001909291905050506112c6565b6040518082815260200191505060405180910390f35b34801561054d57600080fd5b506105b9600480360381019080803590602001908201803590602001908080602002602001604051908101604052809392919081815260200183836020028082843782019150505050505091929192908035906020019092919080359060200190929190505050611415565b6040518082815260200191505060405180910390f35b61065a600480360381019080803590602001908201803590602001908080602002602001604051908101604052809392919081815260200183836020028082843782019150505050505091929192908035906020019092919080359060200190929190803573ffffffffffffffffffffffffffffffffffffffff16906020019092919050505061142c565b6040518082815260200191505060405180910390f35b34801561067c57600080fd5b50610685611452565b604051808273ffffffffffffffffffffffffffffffffffffffff1673ffffffffffffffffffffffffffffffffffffffff16815260200191505060405180910390f35b3480156106d357600080fd5b50610708600480360381019080803573ffffffffffffffffffffffffffffffffffffffff169060200190929190505050611478565b005b34801561071657600080fd5b5061074b600480360381019080803573ffffffffffffffffffffffffffffffffffffffff16906020019092919050505061158f565b005b6107b8600480360381019080803590602001908201803590602001908080602002602001604051908101604052809392919081815260200183836020028082843782019150505050505091929192908035906020019092919080359060200190929190505050611687565b6040518082815260200191505060405180910390f35b6000809054906101000a900473ffffffffffffffffffffffffffffffffffffffff1673ffffffffffffffffffffffffffffffffffffffff163373ffffffffffffffffffffffffffffffffffffffff1614151561082657fe5b81600073ffffffffffffffffffffffffffffffffffffffff168173ffffffffffffffffffffffffffffffffffffffff161415151561086357600080fd5b823073ffffffffffffffffffffffffffffffffffffffff168173ffffffffffffffffffffffffffffffffffffffff161415151561089f57600080fd5b82600460008673ffffffffffffffffffffffffffffffffffffffff1673ffffffffffffffffffffffffffffffffffffffff16815260200190815260200160002060006101000a81548160ff02191690831515021790555050505050565b6000809054906101000a900473ffffffffffffffffffffffffffffffffffffffff1673ffffffffffffffffffffffffffffffffffffffff163373ffffffffffffffffffffffffffffffffffffffff1614151561095457fe5b80600073ffffffffffffffffffffffffffffffffffffffff168173ffffffffffffffffffffffffffffffffffffffff161415151561099157600080fd5b813073ffffffffffffffffffffffffffffffffffffffff168173ffffffffffffffffffffffffffffffffffffffff16141515156109cd57600080fd5b82600260006101000a81548173ffffffffffffffffffffffffffffffffffffffff021916908373ffffffffffffffffffffffffffffffffffffffff160217905550505050565b60008060008b60028151118015610a2c57506015815111155b8015610a455750600160028251811515610a4257fe5b06145b1515610a5057600080fd5b60008760ff16148015610a6a575060006001028660001916145b8015610a7d575060006001028560001916145b15610b3057600360009054906101000a900473ffffffffffffffffffffffffffffffffffffffff1673ffffffffffffffffffffffffffffffffffffffff16636b4dff1f3a6040518263ffffffff167c010000000000000000000000000000000000000000000000000000000002815260040180828152602001915050600060405180830381600087803b158015610b1357600080fd5b505af1158015610b27573d6000803e3d6000fd5b50505050610b4a565b610b3e898b8a8a8a8a61169e565b1515610b4957600080fd5b5b8c6000815181101515610b5957fe5b9060200190602002015192506000341480610bc85750348c148015610bc75750600460008473ffffffffffffffffffffffffffffffffffffffff1673ffffffffffffffffffffffffffffffffffffffff16815260200190815260200160002060009054906101000a900460ff165b5b1515610bd357600080fd5b6000341115610c5a578273ffffffffffffffffffffffffffffffffffffffff1663d0e30db0346040518263ffffffff167c01000000000000000000000000000000000000000000000000000000000281526004016000604051808303818588803b158015610c4057600080fd5b505af1158015610c54573d6000803e3d6000fd5b50505050505b610c668d8d8d8661195d565b809350819d505050600460008373ffffffffffffffffffffffffffffffffffffffff1673ffffffffffffffffffffffffffffffffffffffff16815260200190815260200160002060009054906101000a900460ff1615610d80578173ffffffffffffffffffffffffffffffffffffffff1663205c28788b8e6040518363ffffffff167c0100000000000000000000000000000000000000000000000000000000028152600401808373ffffffffffffffffffffffffffffffffffffffff1673ffffffffffffffffffffffffffffffffffffffff16815260200182815260200192505050600060405180830381600087803b158015610d6357600080fd5b505af1158015610d77573d6000803e3d6000fd5b50505050610e67565b8173ffffffffffffffffffffffffffffffffffffffff1663a9059cbb8b8e6040518363ffffffff167c0100000000000000000000000000000000000000000000000000000000028152600401808373ffffffffffffffffffffffffffffffffffffffff1673ffffffffffffffffffffffffffffffffffffffff16815260200182815260200192505050602060405180830381600087803b158015610e2357600080fd5b505af1158015610e37573d6000803e3d6000fd5b505050506040513d6020811015610e4d57600080fd5b81019080805190602001909291905050501515610e6657fe5b5b8b93505050509998505050505050505050565b600260009054906101000a900473ffffffffffffffffffffffffffffffffffffffff1681565b6000809054906101000a900473ffffffffffffffffffffffffffffffffffffffff1673ffffffffffffffffffffffffffffffffffffffff163373ffffffffffffffffffffffffffffffffffffffff16141515610ef857fe5b82600073ffffffffffffffffffffffffffffffffffffffff168173ffffffffffffffffffffffffffffffffffffffff1614151515610f3557600080fd5b82600073ffffffffffffffffffffffffffffffffffffffff168173ffffffffffffffffffffffffffffffffffffffff1614151515610f7257600080fd5b833073ffffffffffffffffffffffffffffffffffffffff168173ffffffffffffffffffffffffffffffffffffffff1614151515610fae57600080fd5b8573ffffffffffffffffffffffffffffffffffffffff1663a9059cbb86866040518363ffffffff167c0100000000000000000000000000000000000000000000000000000000028152600401808373ffffffffffffffffffffffffffffffffffffffff1673ffffffffffffffffffffffffffffffffffffffff16815260200182815260200192505050602060405180830381600087803b15801561105157600080fd5b505af1158015611065573d6000803e3d6000fd5b505050506040513d602081101561107b57600080fd5b8101908080519060200190929190505050151561109457fe5b505050505050565b600160009054906101000a900473ffffffffffffffffffffffffffffffffffffffff1673ffffffffffffffffffffffffffffffffffffffff163373ffffffffffffffffffffffffffffffffffffffff161415156110f857600080fd5b600160009054906101000a900473ffffffffffffffffffffffffffffffffffffffff1673ffffffffffffffffffffffffffffffffffffffff166000809054906101000a900473ffffffffffffffffffffffffffffffffffffffff1673ffffffffffffffffffffffffffffffffffffffff167f343765429aea5a34b3ff6a3785a98a5abb2597aca87bfbb58632c173d585373a60405160405180910390a3600160009054906101000a900473ffffffffffffffffffffffffffffffffffffffff166000806101000a81548173ffffffffffffffffffffffffffffffffffffffff021916908373ffffffffffffffffffffffffffffffffffffffff1602179055506000600160006101000a81548173ffffffffffffffffffffffffffffffffffffffff021916908373ffffffffffffffffffffffffffffffffffffffff160217905550565b60046020528060005260406000206000915054906101000a900460ff1681565b60056020528060005260406000206000915054906101000a900460ff1681565b6000809054906101000a900473ffffffffffffffffffffffffffffffffffffffff1681565b600360009054906101000a900473ffffffffffffffffffffffffffffffffffffffff1681565b6000808560008151811015156112d857fe5b9060200190602002015190508073ffffffffffffffffffffffffffffffffffffffff166323b872dd3330886040518463ffffffff167c0100000000000000000000000000000000000000000000000000000000028152600401808473ffffffffffffffffffffffffffffffffffffffff1673ffffffffffffffffffffffffffffffffffffffff1681526020018373ffffffffffffffffffffffffffffffffffffffff1673ffffffffffffffffffffffffffffffffffffffff1681526020018281526020019350505050602060405180830381600087803b1580156113bb57600080fd5b505af11580156113cf573d6000803e3d6000fd5b505050506040513d60208110156113e557600080fd5b810190808051906020019092919050505015156113fe57fe5b61140a8686868661142c565b915050949350505050565b6000611423848484336112c6565b90509392505050565b6000611448858585856000806000806001026000600102610a13565b9050949350505050565b600160009054906101000a900473ffffffffffffffffffffffffffffffffffffffff1681565b6000809054906101000a900473ffffffffffffffffffffffffffffffffffffffff1673ffffffffffffffffffffffffffffffffffffffff163373ffffffffffffffffffffffffffffffffffffffff161415156114d057fe5b80600073ffffffffffffffffffffffffffffffffffffffff168173ffffffffffffffffffffffffffffffffffffffff161415151561150d57600080fd5b813073ffffffffffffffffffffffffffffffffffffffff168173ffffffffffffffffffffffffffffffffffffffff161415151561154957600080fd5b82600360006101000a81548173ffffffffffffffffffffffffffffffffffffffff021916908373ffffffffffffffffffffffffffffffffffffffff160217905550505050565b6000809054906101000a900473ffffffffffffffffffffffffffffffffffffffff1673ffffffffffffffffffffffffffffffffffffffff163373ffffffffffffffffffffffffffffffffffffffff161415156115e757fe5b6000809054906101000a900473ffffffffffffffffffffffffffffffffffffffff1673ffffffffffffffffffffffffffffffffffffffff168173ffffffffffffffffffffffffffffffffffffffff161415151561164357600080fd5b80600160006101000a81548173ffffffffffffffffffffffffffffffffffffffff021916908373ffffffffffffffffffffffffffffffffffffffff16021790555050565b60006116958484843361142c565b90509392505050565b600080606060008060028b3a8c8c604051808581526020018481526020018373ffffffffffffffffffffffffffffffffffffffff1673ffffffffffffffffffffffffffffffffffffffff166c010000000000000000000000000281526014018281526020019450505050506020604051808303816000865af1158015611728573d6000803e3d6000fd5b5050506040513d602081101561173d57600080fd5b8101908080519060200190929190505050935060056000856000191660001916815260200190815260200160002060009054906101000a900460ff1615801561178657508a4311155b151561179157600080fd5b6040805190810160405280601c81526020017f19457468657265756d205369676e6564204d6573736167653a0a333200000000815250925082846040518083805190602001908083835b60208310151561180057805182526020820191506020810190506020830392506117db565b6001836020036101000a03801982511681845116808217855250505050505090500182600019166000191681526020019250505060405180910390209150600260009054906101000a900473ffffffffffffffffffffffffffffffffffffffff1673ffffffffffffffffffffffffffffffffffffffff166001838a8a8a604051600081526020016040526040518085600019166000191681526020018460ff1660ff1681526020018360001916600019168152602001826000191660001916815260200194505050505060206040516020810390808403906000865af11580156118ee573d6000803e3d6000fd5b5050506020604051035173ffffffffffffffffffffffffffffffffffffffff16149050801561194c57600160056000866000191660001916815260200190815260200160002060006101000a81548160ff0219169083151502179055505b809450505050509695505050505050565b60008060008060008060008a519150600190505b81811015611bce578a8181518110151561198757fe5b9060200190602002015194508a600182018151811015156119a457fe5b9060200190602002015193508473ffffffffffffffffffffffffffffffffffffffff16638da5cb5b6040518163ffffffff167c0100000000000000000000000000000000000000000000000000000000028152600401602060405180830381600087803b158015611a1457600080fd5b505af1158015611a28573d6000803e3d6000fd5b505050506040513d6020811015611a3e57600080fd5b810190808051906020019092919050505092508773ffffffffffffffffffffffffffffffffffffffff168573ffffffffffffffffffffffffffffffffffffffff16141515611a9257611a9188848c611be2565b5b8273ffffffffffffffffffffffffffffffffffffffff16635e5144eb89868d600287038614611ac2576001611ac4565b8d5b6040518563ffffffff167c0100000000000000000000000000000000000000000000000000000000028152600401808573ffffffffffffffffffffffffffffffffffffffff1673ffffffffffffffffffffffffffffffffffffffff1681526020018473ffffffffffffffffffffffffffffffffffffffff1673ffffffffffffffffffffffffffffffffffffffff168152602001838152602001828152602001945050505050602060405180830381600087803b158015611b8357600080fd5b505af1158015611b97573d6000803e3d6000fd5b505050506040513d6020811015611bad57600080fd5b81019080805190602001909291905050509950839750600281019050611971565b898496509650505050505094509492505050565b808373ffffffffffffffffffffffffffffffffffffffff1663dd62ed3e30856040518363ffffffff167c0100000000000000000000000000000000000000000000000000000000028152600401808373ffffffffffffffffffffffffffffffffffffffff1673ffffffffffffffffffffffffffffffffffffffff1681526020018273ffffffffffffffffffffffffffffffffffffffff1673ffffffffffffffffffffffffffffffffffffffff16815260200192505050602060405180830381600087803b158015611cb257600080fd5b505af1158015611cc6573d6000803e3d6000fd5b505050506040513d6020811015611cdc57600080fd5b8101908080519060200190929190505050101515611cf957611fdb565b60008373ffffffffffffffffffffffffffffffffffffffff1663dd62ed3e30856040518363ffffffff167c0100000000000000000000000000000000000000000000000000000000028152600401808373ffffffffffffffffffffffffffffffffffffffff1673ffffffffffffffffffffffffffffffffffffffff1681526020018273ffffffffffffffffffffffffffffffffffffffff1673ffffffffffffffffffffffffffffffffffffffff16815260200192505050602060405180830381600087803b158015611dca57600080fd5b505af1158015611dde573d6000803e3d6000fd5b505050506040513d6020811015611df457600080fd5b8101908080519060200190929190505050141515611ef4578273ffffffffffffffffffffffffffffffffffffffff1663095ea7b38360006040518363ffffffff167c0100000000000000000000000000000000000000000000000000000000028152600401808373ffffffffffffffffffffffffffffffffffffffff1673ffffffffffffffffffffffffffffffffffffffff16815260200182815260200192505050602060405180830381600087803b158015611eb057600080fd5b505af1158015611ec4573d6000803e3d6000fd5b505050506040513d6020811015611eda57600080fd5b81019080805190602001909291905050501515611ef357fe5b5b8273ffffffffffffffffffffffffffffffffffffffff1663095ea7b383836040518363ffffffff167c0100000000000000000000000000000000000000000000000000000000028152600401808373ffffffffffffffffffffffffffffffffffffffff1673ffffffffffffffffffffffffffffffffffffffff16815260200182815260200192505050602060405180830381600087803b158015611f9757600080fd5b505af1158015611fab573d6000803e3d6000fd5b505050506040513d6020811015611fc157600080fd5b81019080805190602001909291905050501515611fda57fe5b5b5050505600a165627a7a723058204283e429ca482449edce0927f6a199d1e71d0fe89c416806f4b0c20fc6c3a06f0029",
  "source": "pragma solidity ^0.4.18;\nimport './TokenHolder.sol';\nimport './interfaces/IBancorQuickConverter.sol';\nimport './interfaces/IEtherToken.sol';\nimport './interfaces/ISmartToken.sol';\nimport './interfaces/ITokenConverter.sol';\n\n/*\n    The BancorQuickConverter contract provides allows converting between any token in the \n    bancor network in a single transaction.\n\n    A note on conversion paths -\n    Conversion path is a data structure that's used when converting a token to another token in the bancor network\n    when the conversion cannot necessarily be done by single converter and might require multiple 'hops'.\n    The path defines which converters should be used and what kind of conversion should be done in each step.\n\n    The path format doesn't include complex structure and instead, it is represented by a single array\n    in which each 'hop' is represented by a 2-tuple - smart token & to token.\n    In addition, the first element is always the source token.\n    The smart token is only used as a pointer to a converter (since converter addresses are more likely to change).\n\n    Format:\n    [source token, smart token, to token, smart token, to token...]\n*/\ncontract BancorQuickConverter is IBancorQuickConverter, TokenHolder {\n    address public signerAddress = 0x0; // verified address that allows conversions with higher gas price\n    IBancorGasPriceLimit public gasPriceLimit; // bancor universal gas price limit contract\n    mapping (address => bool) public etherTokens;   // list of all supported ether tokens\n    mapping (bytes32 => bool) public conversionHashes;\n\n    /**\n        @dev constructor\n    */\n    function BancorQuickConverter() public {\n    }\n\n    // validates a conversion path - verifies that the number of elements is odd and that maximum number of 'hops' is 10\n    modifier validConversionPath(IERC20Token[] _path) {\n        require(_path.length > 2 && _path.length <= (1 + 2 * 10) && _path.length % 2 == 1);\n        _;\n    }\n\n    /*\n        @dev allows the owner to update the gas price limit contract address\n\n        @param _gasPriceLimit   address of a bancor gas price limit contract\n    */\n    function setGasPriceLimit(IBancorGasPriceLimit _gasPriceLimit)\n        public\n        ownerOnly\n        validAddress(_gasPriceLimit)\n        notThis(_gasPriceLimit)\n    {\n        gasPriceLimit = _gasPriceLimit;\n    }\n\n    /*\n        @dev allows the owner to update the signer address\n\n        @param _signerAddress    new signer address\n    */\n    function setSignerAddress(address _signerAddress)\n        public\n        ownerOnly\n        validAddress(_signerAddress)\n        notThis(_signerAddress)\n    {\n        signerAddress = _signerAddress;\n    }\n\n    /**\n        @dev allows the owner to register/unregister ether tokens\n\n        @param _token       ether token contract address\n        @param _register    true to register, false to unregister\n    */\n    function registerEtherToken(IEtherToken _token, bool _register)\n        public\n        ownerOnly\n        validAddress(_token)\n        notThis(_token)\n    {\n        etherTokens[_token] = _register;\n    }\n\n    /**\n        @dev verifies that the signer address is trusted by recovering \n        the address associated with the public key from elliptic \n        curve signature, returns zero on error.\n        notice that the signature is valid only for one conversion\n        and expires after the give block.\n\n        @return true if the signer is verified\n    */\n    function verifyTrustedSender(uint256 _block, address _addr, uint256 _nonce, uint8 _v, bytes32 _r, bytes32 _s) private returns(bool) {\n        bytes32 hash = sha256(_block, tx.gasprice, _addr, _nonce);\n\n        // checking that it is the first conversion with the given signature\n        // and that the current block number doesn't exceeded the maximum block\n        // number that's allowed with the current signature\n        require(!conversionHashes[hash] && block.number <= _block);\n\n        // recovering the signing address and comparing it to the trusted signer\n        // address that was set in the contract\n        bytes memory prefix = \"\\x19Ethereum Signed Message:\\n32\";\n        bytes32 prefixedHash = keccak256(prefix, hash);\n        bool verified = ecrecover(prefixedHash, _v, _r, _s) == signerAddress;\n\n        // if the signer is the trusted signer - mark the hash so that it can't\n        // be used multiple times\n        if (verified)\n            conversionHashes[hash] = true;\n        return verified;\n    }\n\n/**\n        @dev converts the token to any other token in the bancor network by following\n        a predefined conversion path and transfers the result tokens to a target account\n        note that the converter should already own the source tokens\n\n        @param _path        conversion path, see conversion path format above\n        @param _amount      amount to convert from (in the initial source token)\n        @param _minReturn   if the conversion results in an amount smaller than the minimum return - it is cancelled, must be nonzero\n        @param _for         account that will receive the conversion result\n\n        @return tokens issued in return\n    */\n    function convertFor(IERC20Token[] _path, uint256 _amount, uint256 _minReturn, address _for) public payable returns (uint256) {\n        return convertForPrioritized(_path, _amount, _minReturn, _for, 0x0, 0x0, 0x0, 0x0, 0x0);\n    }\n\n    /**\n        @dev converts the token to any other token in the bancor network\n        by following a predefined conversion path and transfers the result\n        tokens to a target account.\n        this specific version of the function also allows the verified signer\n        to bypass the universal gas price limit.\n        note that the converter should already own the source tokens\n\n        @param _path        conversion path, see conversion path format above\n        @param _amount      amount to convert from (in the initial source token)\n        @param _minReturn   if the conversion results in an amount smaller than the minimum return - it is cancelled, must be nonzero\n        @param _for         account that will receive the conversion result\n\n        @return tokens issued in return\n    */\n    function convertForPrioritized(IERC20Token[] _path, uint256 _amount, uint256 _minReturn, address _for, uint256 _block, uint256 _nonce, uint8 _v, bytes32 _r, bytes32 _s)\n        public\n        payable\n        validConversionPath(_path)\n        returns (uint256)\n    {\n        if (_v == 0x0 && _r == 0x0 && _s == 0x0)\n            gasPriceLimit.validateGasPrice(tx.gasprice);\n        else\n            require(verifyTrustedSender(_block, _for, _nonce, _v, _r, _s));\n\n        // if ETH is provided, ensure that the amount is identical to _amount and verify that the source token is an ether token\n        IERC20Token fromToken = _path[0];\n        require(msg.value == 0 || (_amount == msg.value && etherTokens[fromToken]));\n\n        IERC20Token toToken;\n\n        // if ETH was sent with the call, the source is an ether token - deposit the ETH in it\n        // otherwise, we assume we already have the tokens\n        if (msg.value > 0)\n            IEtherToken(fromToken).deposit.value(msg.value)();\n        \n        (_amount, toToken) = convertByPath(_path, _amount, _minReturn, fromToken);\n\n        // finished the conversion, transfer the funds to the target account\n        // if the target token is an ether token, withdraw the tokens and send them as ETH\n        // otherwise, transfer the tokens as is\n        if (etherTokens[toToken])\n            IEtherToken(toToken).withdrawTo(_for, _amount);\n        else\n            assert(toToken.transfer(_for, _amount));\n\n        return _amount;\n    }\n\n    function convertByPath(IERC20Token[] _path, uint256 _amount, uint256 _minReturn, IERC20Token _fromToken) private returns (uint256, IERC20Token) {\n        ISmartToken smartToken;\n        IERC20Token toToken;\n        ITokenConverter converter;\n\n        // iterate over the conversion path\n        uint256 pathLength = _path.length;\n\n        for (uint256 i = 1; i < pathLength; i += 2) {\n            smartToken = ISmartToken(_path[i]);\n            toToken = _path[i + 1];\n            converter = ITokenConverter(smartToken.owner());\n\n            // if the smart token isn't the source (from token), the converter doesn't have control over it and thus we need to approve the request\n            if (smartToken != _fromToken)\n                ensureAllowance(_fromToken, converter, _amount);\n\n            // make the conversion - if it's the last one, also provide the minimum return value\n            _amount = converter.change(_fromToken, toToken, _amount, i == pathLength - 2 ? _minReturn : 1);\n            _fromToken = toToken;\n        }\n        return (_amount, toToken);\n    }\n\n    /**\n        @dev claims the caller's tokens, converts them to any other token in the bancor network\n        by following a predefined conversion path and transfers the result tokens to a target account\n        note that allowance must be set beforehand\n\n        @param _path        conversion path, see conversion path format above\n        @param _amount      amount to convert from (in the initial source token)\n        @param _minReturn   if the conversion results in an amount smaller than the minimum return - it is cancelled, must be nonzero\n        @param _for         account that will receive the conversion result\n\n        @return tokens issued in return\n    */\n    function claimAndConvertFor(IERC20Token[] _path, uint256 _amount, uint256 _minReturn, address _for) public returns (uint256) {\n        // we need to transfer the tokens from the caller to the converter before we follow\n        // the conversion path, to allow it to execute the conversion on behalf of the caller\n        // note: we assume we already have allowance\n        IERC20Token fromToken = _path[0];\n        assert(fromToken.transferFrom(msg.sender, this, _amount));\n        return convertFor(_path, _amount, _minReturn, _for);\n    }\n\n    /**\n        @dev converts the token to any other token in the bancor network by following\n        a predefined conversion path and transfers the result tokens back to the sender\n        note that the converter should already own the source tokens\n\n        @param _path        conversion path, see conversion path format above\n        @param _amount      amount to convert from (in the initial source token)\n        @param _minReturn   if the conversion results in an amount smaller than the minimum return - it is cancelled, must be nonzero\n\n        @return tokens issued in return\n    */\n    function convert(IERC20Token[] _path, uint256 _amount, uint256 _minReturn) public payable returns (uint256) {\n        return convertFor(_path, _amount, _minReturn, msg.sender);\n    }\n\n    /**\n        @dev claims the caller's tokens, converts them to any other token in the bancor network\n        by following a predefined conversion path and transfers the result tokens back to the sender\n        note that allowance must be set beforehand\n\n        @param _path        conversion path, see conversion path format above\n        @param _amount      amount to convert from (in the initial source token)\n        @param _minReturn   if the conversion results in an amount smaller than the minimum return - it is cancelled, must be nonzero\n\n        @return tokens issued in return\n    */\n    function claimAndConvert(IERC20Token[] _path, uint256 _amount, uint256 _minReturn) public returns (uint256) {\n        return claimAndConvertFor(_path, _amount, _minReturn, msg.sender);\n    }\n\n    /**\n        @dev utility, checks whether allowance for the given spender exists and approves one if it doesn't\n\n        @param _token   token to check the allowance in\n        @param _spender approved address\n        @param _value   allowance amount\n    */\n    function ensureAllowance(IERC20Token _token, address _spender, uint256 _value) private {\n        // check if allowance for the given amount already exists\n        if (_token.allowance(this, _spender) >= _value)\n            return;\n\n        // if the allowance is nonzero, must reset it to 0 first\n        if (_token.allowance(this, _spender) != 0)\n            assert(_token.approve(_spender, 0));\n\n        // approve the new allowance\n        assert(_token.approve(_spender, _value));\n    }\n}\n",
  "sourcePath": "D:\\EthereumProjects\\work\\mulaProtocol\\contracts\\bancor\\contracts\\BancorQuickConverter.sol",
  "compiler": {
    "name": "solc",
    "version": "0.4.23+commit.124ca40d.Emscripten.clang"
  },
  "schemaVersion": "2.0.0",
  "updatedAt": "2018-05-02T11:25:28.294Z"
}