{
  "contractName": "ERC20Token",
  "abi": [
    {
      "constant": true,
      "inputs": [],
      "name": "name",
      "outputs": [
        {
          "name": "",
          "type": "string"
        }
      ],
      "payable": false,
      "stateMutability": "view",
      "type": "function"
    },
    {
      "constant": true,
      "inputs": [],
      "name": "totalSupply",
      "outputs": [
        {
          "name": "",
          "type": "uint256"
        }
      ],
      "payable": false,
      "stateMutability": "view",
      "type": "function"
    },
    {
      "constant": true,
      "inputs": [],
      "name": "decimals",
      "outputs": [
        {
          "name": "",
          "type": "uint8"
        }
      ],
      "payable": false,
      "stateMutability": "view",
      "type": "function"
    },
    {
      "constant": true,
      "inputs": [],
      "name": "standard",
      "outputs": [
        {
          "name": "",
          "type": "string"
        }
      ],
      "payable": false,
      "stateMutability": "view",
      "type": "function"
    },
    {
      "constant": true,
      "inputs": [
        {
          "name": "",
          "type": "address"
        }
      ],
      "name": "balanceOf",
      "outputs": [
        {
          "name": "",
          "type": "uint256"
        }
      ],
      "payable": false,
      "stateMutability": "view",
      "type": "function"
    },
    {
      "constant": true,
      "inputs": [],
      "name": "symbol",
      "outputs": [
        {
          "name": "",
          "type": "string"
        }
      ],
      "payable": false,
      "stateMutability": "view",
      "type": "function"
    },
    {
      "constant": true,
      "inputs": [
        {
          "name": "",
          "type": "address"
        },
        {
          "name": "",
          "type": "address"
        }
      ],
      "name": "allowance",
      "outputs": [
        {
          "name": "",
          "type": "uint256"
        }
      ],
      "payable": false,
      "stateMutability": "view",
      "type": "function"
    },
    {
      "inputs": [
        {
          "name": "_name",
          "type": "string"
        },
        {
          "name": "_symbol",
          "type": "string"
        },
        {
          "name": "_decimals",
          "type": "uint8"
        }
      ],
      "payable": false,
      "stateMutability": "nonpayable",
      "type": "constructor"
    },
    {
      "anonymous": false,
      "inputs": [
        {
          "indexed": true,
          "name": "_from",
          "type": "address"
        },
        {
          "indexed": true,
          "name": "_to",
          "type": "address"
        },
        {
          "indexed": false,
          "name": "_value",
          "type": "uint256"
        }
      ],
      "name": "Transfer",
      "type": "event"
    },
    {
      "anonymous": false,
      "inputs": [
        {
          "indexed": true,
          "name": "_owner",
          "type": "address"
        },
        {
          "indexed": true,
          "name": "_spender",
          "type": "address"
        },
        {
          "indexed": false,
          "name": "_value",
          "type": "uint256"
        }
      ],
      "name": "Approval",
      "type": "event"
    },
    {
      "constant": false,
      "inputs": [
        {
          "name": "_to",
          "type": "address"
        },
        {
          "name": "_value",
          "type": "uint256"
        }
      ],
      "name": "transfer",
      "outputs": [
        {
          "name": "success",
          "type": "bool"
        }
      ],
      "payable": false,
      "stateMutability": "nonpayable",
      "type": "function"
    },
    {
      "constant": false,
      "inputs": [
        {
          "name": "_from",
          "type": "address"
        },
        {
          "name": "_to",
          "type": "address"
        },
        {
          "name": "_value",
          "type": "uint256"
        }
      ],
      "name": "transferFrom",
      "outputs": [
        {
          "name": "success",
          "type": "bool"
        }
      ],
      "payable": false,
      "stateMutability": "nonpayable",
      "type": "function"
    },
    {
      "constant": false,
      "inputs": [
        {
          "name": "_spender",
          "type": "address"
        },
        {
          "name": "_value",
          "type": "uint256"
        }
      ],
      "name": "approve",
      "outputs": [
        {
          "name": "success",
          "type": "bool"
        }
      ],
      "payable": false,
      "stateMutability": "nonpayable",
      "type": "function"
    }
  ],
  "bytecode": "0x60806040526040805190810160405280600981526020017f546f6b656e20302e310000000000000000000000000000000000000000000000815250600090805190602001906200005192919062000183565b506020604051908101604052806000815250600190805190602001906200007a92919062000183565b50602060405190810160405280600081525060029080519060200190620000a392919062000183565b506000600360006101000a81548160ff021916908360ff1602179055506000600455348015620000d257600080fd5b5060405162001040380380620010408339810180604052810190808051820192919060200180518201929190602001805190602001909291905050506000835111801562000121575060008251115b15156200012d57600080fd5b82600190805190602001906200014592919062000183565b5081600290805190602001906200015e92919062000183565b5080600360006101000a81548160ff021916908360ff16021790555050505062000232565b828054600181600116156101000203166002900490600052602060002090601f016020900481019282601f10620001c657805160ff1916838001178555620001f7565b82800160010185558215620001f7579182015b82811115620001f6578251825591602001919060010190620001d9565b5b5090506200020691906200020a565b5090565b6200022f91905b808211156200022b57600081600090555060010162000211565b5090565b90565b610dfe80620002426000396000f3006080604052600436106100a4576000357c0100000000000000000000000000000000000000000000000000000000900463ffffffff16806306fdde03146100a9578063095ea7b31461013957806318160ddd1461019e57806323b872dd146101c9578063313ce5671461024e5780635a3b7e421461027f57806370a082311461030f57806395d89b4114610366578063a9059cbb146103f6578063dd62ed3e1461045b575b600080fd5b3480156100b557600080fd5b506100be6104d2565b6040518080602001828103825283818151815260200191508051906020019080838360005b838110156100fe5780820151818401526020810190506100e3565b50505050905090810190601f16801561012b5780820380516001836020036101000a031916815260200191505b509250505060405180910390f35b34801561014557600080fd5b50610184600480360381019080803573ffffffffffffffffffffffffffffffffffffffff16906020019092919080359060200190929190505050610570565b604051808215151515815260200191505060405180910390f35b3480156101aa57600080fd5b506101b3610736565b6040518082815260200191505060405180910390f35b3480156101d557600080fd5b50610234600480360381019080803573ffffffffffffffffffffffffffffffffffffffff169060200190929190803573ffffffffffffffffffffffffffffffffffffffff1690602001909291908035906020019092919050505061073c565b604051808215151515815260200191505060405180910390f35b34801561025a57600080fd5b50610263610a48565b604051808260ff1660ff16815260200191505060405180910390f35b34801561028b57600080fd5b50610294610a5b565b6040518080602001828103825283818151815260200191508051906020019080838360005b838110156102d45780820151818401526020810190506102b9565b50505050905090810190601f1680156103015780820380516001836020036101000a031916815260200191505b509250505060405180910390f35b34801561031b57600080fd5b50610350600480360381019080803573ffffffffffffffffffffffffffffffffffffffff169060200190929190505050610af9565b6040518082815260200191505060405180910390f35b34801561037257600080fd5b5061037b610b11565b6040518080602001828103825283818151815260200191508051906020019080838360005b838110156103bb5780820151818401526020810190506103a0565b50505050905090810190601f1680156103e85780820380516001836020036101000a031916815260200191505b509250505060405180910390f35b34801561040257600080fd5b50610441600480360381019080803573ffffffffffffffffffffffffffffffffffffffff16906020019092919080359060200190929190505050610baf565b604051808215151515815260200191505060405180910390f35b34801561046757600080fd5b506104bc600480360381019080803573ffffffffffffffffffffffffffffffffffffffff169060200190929190803573ffffffffffffffffffffffffffffffffffffffff169060200190929190505050610d76565b6040518082815260200191505060405180910390f35b60018054600181600116156101000203166002900480601f0160208091040260200160405190810160405280929190818152602001828054600181600116156101000203166002900480156105685780601f1061053d57610100808354040283529160200191610568565b820191906000526020600020905b81548152906001019060200180831161054b57829003601f168201915b505050505081565b600082600073ffffffffffffffffffffffffffffffffffffffff168173ffffffffffffffffffffffffffffffffffffffff16141515156105af57600080fd5b600083148061063a57506000600660003373ffffffffffffffffffffffffffffffffffffffff1673ffffffffffffffffffffffffffffffffffffffff16815260200190815260200160002060008673ffffffffffffffffffffffffffffffffffffffff1673ffffffffffffffffffffffffffffffffffffffff16815260200190815260200160002054145b151561064557600080fd5b82600660003373ffffffffffffffffffffffffffffffffffffffff1673ffffffffffffffffffffffffffffffffffffffff16815260200190815260200160002060008673ffffffffffffffffffffffffffffffffffffffff1673ffffffffffffffffffffffffffffffffffffffff168152602001908152602001600020819055508373ffffffffffffffffffffffffffffffffffffffff163373ffffffffffffffffffffffffffffffffffffffff167f8c5be1e5ebec7d5bd14f71427d1e84f3dd0314c0f7b2291e5b200ac8c7c3b925856040518082815260200191505060405180910390a3600191505092915050565b60045481565b600083600073ffffffffffffffffffffffffffffffffffffffff168173ffffffffffffffffffffffffffffffffffffffff161415151561077b57600080fd5b83600073ffffffffffffffffffffffffffffffffffffffff168173ffffffffffffffffffffffffffffffffffffffff16141515156107b857600080fd5b61083e600660008873ffffffffffffffffffffffffffffffffffffffff1673ffffffffffffffffffffffffffffffffffffffff16815260200190815260200160002060003373ffffffffffffffffffffffffffffffffffffffff1673ffffffffffffffffffffffffffffffffffffffff1681526020019081526020016000205485610d9b565b600660008873ffffffffffffffffffffffffffffffffffffffff1673ffffffffffffffffffffffffffffffffffffffff16815260200190815260200160002060003373ffffffffffffffffffffffffffffffffffffffff1673ffffffffffffffffffffffffffffffffffffffff16815260200190815260200160002081905550610907600560008873ffffffffffffffffffffffffffffffffffffffff1673ffffffffffffffffffffffffffffffffffffffff1681526020019081526020016000205485610d9b565b600560008873ffffffffffffffffffffffffffffffffffffffff1673ffffffffffffffffffffffffffffffffffffffff16815260200190815260200160002081905550610993600560008773ffffffffffffffffffffffffffffffffffffffff1673ffffffffffffffffffffffffffffffffffffffff1681526020019081526020016000205485610db4565b600560008773ffffffffffffffffffffffffffffffffffffffff1673ffffffffffffffffffffffffffffffffffffffff168152602001908152602001600020819055508473ffffffffffffffffffffffffffffffffffffffff168673ffffffffffffffffffffffffffffffffffffffff167fddf252ad1be2c89b69c2b068fc378daa952ba7f163c4a11628f55a4df523b3ef866040518082815260200191505060405180910390a36001925050509392505050565b600360009054906101000a900460ff1681565b60008054600181600116156101000203166002900480601f016020809104026020016040519081016040528092919081815260200182805460018160011615610100020316600290048015610af15780601f10610ac657610100808354040283529160200191610af1565b820191906000526020600020905b815481529060010190602001808311610ad457829003601f168201915b505050505081565b60056020528060005260406000206000915090505481565b60028054600181600116156101000203166002900480601f016020809104026020016040519081016040528092919081815260200182805460018160011615610100020316600290048015610ba75780601f10610b7c57610100808354040283529160200191610ba7565b820191906000526020600020905b815481529060010190602001808311610b8a57829003601f168201915b505050505081565b600082600073ffffffffffffffffffffffffffffffffffffffff168173ffffffffffffffffffffffffffffffffffffffff1614151515610bee57600080fd5b610c37600560003373ffffffffffffffffffffffffffffffffffffffff1673ffffffffffffffffffffffffffffffffffffffff1681526020019081526020016000205484610d9b565b600560003373ffffffffffffffffffffffffffffffffffffffff1673ffffffffffffffffffffffffffffffffffffffff16815260200190815260200160002081905550610cc3600560008673ffffffffffffffffffffffffffffffffffffffff1673ffffffffffffffffffffffffffffffffffffffff1681526020019081526020016000205484610db4565b600560008673ffffffffffffffffffffffffffffffffffffffff1673ffffffffffffffffffffffffffffffffffffffff168152602001908152602001600020819055508373ffffffffffffffffffffffffffffffffffffffff163373ffffffffffffffffffffffffffffffffffffffff167fddf252ad1be2c89b69c2b068fc378daa952ba7f163c4a11628f55a4df523b3ef856040518082815260200191505060405180910390a3600191505092915050565b6006602052816000526040600020602052806000526040600020600091509150505481565b6000818310151515610da957fe5b818303905092915050565b6000808284019050838110151515610dc857fe5b80915050929150505600a165627a7a7230582021aea9035270d643224009fc8c2f9b688ba2d94d71854a2b51f2475a4f985d3f0029",
  "source": "pragma solidity ^0.4.18;\nimport './Utils.sol';\nimport './interfaces/IERC20Token.sol';\n\n/**\n    ERC20 Standard Token implementation\n*/\ncontract ERC20Token is IERC20Token, Utils {\n    string public standard = 'Token 0.1';\n    string public name = '';\n    string public symbol = '';\n    uint8 public decimals = 0;\n    uint256 public totalSupply = 0;\n    mapping (address => uint256) public balanceOf;\n    mapping (address => mapping (address => uint256)) public allowance;\n\n    event Transfer(address indexed _from, address indexed _to, uint256 _value);\n    event Approval(address indexed _owner, address indexed _spender, uint256 _value);\n\n    /**\n        @dev constructor\n\n        @param _name        token name\n        @param _symbol      token symbol\n        @param _decimals    decimal points, for display purposes\n    */\n    function ERC20Token(string _name, string _symbol, uint8 _decimals) public {\n        require(bytes(_name).length > 0 && bytes(_symbol).length > 0); // validate input\n\n        name = _name;\n        symbol = _symbol;\n        decimals = _decimals;\n    }\n\n    /**\n        @dev send coins\n        throws on any error rather then return a false flag to minimize user errors\n\n        @param _to      target address\n        @param _value   transfer amount\n\n        @return true if the transfer was successful, false if it wasn't\n    */\n    function transfer(address _to, uint256 _value)\n        public\n        validAddress(_to)\n        returns (bool success)\n    {\n        balanceOf[msg.sender] = safeSub(balanceOf[msg.sender], _value);\n        balanceOf[_to] = safeAdd(balanceOf[_to], _value);\n        Transfer(msg.sender, _to, _value);\n        return true;\n    }\n\n    /**\n        @dev an account/contract attempts to get the coins\n        throws on any error rather then return a false flag to minimize user errors\n\n        @param _from    source address\n        @param _to      target address\n        @param _value   transfer amount\n\n        @return true if the transfer was successful, false if it wasn't\n    */\n    function transferFrom(address _from, address _to, uint256 _value)\n        public\n        validAddress(_from)\n        validAddress(_to)\n        returns (bool success)\n    {\n        allowance[_from][msg.sender] = safeSub(allowance[_from][msg.sender], _value);\n        balanceOf[_from] = safeSub(balanceOf[_from], _value);\n        balanceOf[_to] = safeAdd(balanceOf[_to], _value);\n        Transfer(_from, _to, _value);\n        return true;\n    }\n\n    /**\n        @dev allow another account/contract to spend some tokens on your behalf\n        throws on any error rather then return a false flag to minimize user errors\n\n        also, to minimize the risk of the approve/transferFrom attack vector\n        (see https://docs.google.com/document/d/1YLPtQxZu1UAvO9cZ1O2RPXBbT0mooh4DYKjA_jp-RLM/), approve has to be called twice\n        in 2 separate transactions - once to change the allowance to 0 and secondly to change it to the new allowance value\n\n        @param _spender approved address\n        @param _value   allowance amount\n\n        @return true if the approval was successful, false if it wasn't\n    */\n    function approve(address _spender, uint256 _value)\n        public\n        validAddress(_spender)\n        returns (bool success)\n    {\n        // if the allowance isn't 0, it can only be updated to 0 to prevent an allowance change immediately after withdrawal\n        require(_value == 0 || allowance[msg.sender][_spender] == 0);\n\n        allowance[msg.sender][_spender] = _value;\n        Approval(msg.sender, _spender, _value);\n        return true;\n    }\n}\n",
  "sourcePath": "D:\\EthereumProjects\\work\\mulaProtocol\\contracts\\bancor\\contracts\\ERC20Token.sol",
  "compiler": {
    "name": "solc",
    "version": "0.4.23+commit.124ca40d.Emscripten.clang"
  },
  "schemaVersion": "2.0.0",
  "updatedAt": "2018-05-02T11:25:28.241Z"
}