{
  "contractName": "IBancorConverterExtensions",
  "abi": [
    {
      "constant": true,
      "inputs": [],
      "name": "formula",
      "outputs": [
        {
          "name": "",
          "type": "address"
        }
      ],
      "payable": false,
      "stateMutability": "view",
      "type": "function"
    },
    {
      "constant": true,
      "inputs": [],
      "name": "gasPriceLimit",
      "outputs": [
        {
          "name": "",
          "type": "address"
        }
      ],
      "payable": false,
      "stateMutability": "view",
      "type": "function"
    },
    {
      "constant": true,
      "inputs": [],
      "name": "quickConverter",
      "outputs": [
        {
          "name": "",
          "type": "address"
        }
      ],
      "payable": false,
      "stateMutability": "view",
      "type": "function"
    }
  ],
  "bytecode": "0x608060405234801561001057600080fd5b5061019c806100206000396000f300608060405260043610610057576000357c0100000000000000000000000000000000000000000000000000000000900463ffffffff1680634b75f54f1461005c578063961a929c146100b3578063c31e05471461010a575b600080fd5b34801561006857600080fd5b50610071610161565b604051808273ffffffffffffffffffffffffffffffffffffffff1673ffffffffffffffffffffffffffffffffffffffff16815260200191505060405180910390f35b3480156100bf57600080fd5b506100c8610166565b604051808273ffffffffffffffffffffffffffffffffffffffff1673ffffffffffffffffffffffffffffffffffffffff16815260200191505060405180910390f35b34801561011657600080fd5b5061011f61016b565b604051808273ffffffffffffffffffffffffffffffffffffffff1673ffffffffffffffffffffffffffffffffffffffff16815260200191505060405180910390f35b600090565b600090565b6000905600a165627a7a7230582089966d618d81327672c9f6450f51d466120d9bcee9f1a6f2dea39470ba503f3c0029",
  "source": "pragma solidity ^0.4.18;\nimport './IBancorFormula.sol';\nimport './IBancorGasPriceLimit.sol';\nimport './IBancorQuickConverter.sol';\n\n/*\n    Bancor Converter Extensions interface\n*/\ncontract IBancorConverterExtensions {\n    function formula() public view returns (IBancorFormula) {}\n    function gasPriceLimit() public view returns (IBancorGasPriceLimit) {}\n    function quickConverter() public view returns (IBancorQuickConverter) {}\n}\n",
  "sourcePath": "D:\\EthereumProjects\\work\\mulaProtocol\\contracts\\bancor\\contracts\\interfaces\\IBancorConverterExtensions.sol",
  "compiler": {
    "name": "solc",
    "version": "0.4.23+commit.124ca40d.Emscripten.clang"
  },
  "schemaVersion": "2.0.0",
  "updatedAt": "2018-05-02T11:24:08.553Z"
}