{
  "contractName": "Managed",
  "abi": [
    {
      "constant": true,
      "inputs": [],
      "name": "newManager",
      "outputs": [
        {
          "name": "",
          "type": "address"
        }
      ],
      "payable": false,
      "stateMutability": "view",
      "type": "function"
    },
    {
      "constant": true,
      "inputs": [],
      "name": "manager",
      "outputs": [
        {
          "name": "",
          "type": "address"
        }
      ],
      "payable": false,
      "stateMutability": "view",
      "type": "function"
    },
    {
      "inputs": [],
      "payable": false,
      "stateMutability": "nonpayable",
      "type": "constructor"
    },
    {
      "anonymous": false,
      "inputs": [
        {
          "indexed": true,
          "name": "_prevManager",
          "type": "address"
        },
        {
          "indexed": true,
          "name": "_newManager",
          "type": "address"
        }
      ],
      "name": "ManagerUpdate",
      "type": "event"
    },
    {
      "constant": false,
      "inputs": [
        {
          "name": "_newManager",
          "type": "address"
        }
      ],
      "name": "transferManagement",
      "outputs": [],
      "payable": false,
      "stateMutability": "nonpayable",
      "type": "function"
    },
    {
      "constant": false,
      "inputs": [],
      "name": "acceptManagement",
      "outputs": [],
      "payable": false,
      "stateMutability": "nonpayable",
      "type": "function"
    }
  ],
  "bytecode": "0x608060405234801561001057600080fd5b50336000806101000a81548173ffffffffffffffffffffffffffffffffffffffff021916908373ffffffffffffffffffffffffffffffffffffffff16021790555061047d806100606000396000f300608060405260043610610062576000357c0100000000000000000000000000000000000000000000000000000000900463ffffffff1680634290602914610067578063481c6a75146100be578063c8c2fe6c14610115578063e4edf8521461012c575b600080fd5b34801561007357600080fd5b5061007c61016f565b604051808273ffffffffffffffffffffffffffffffffffffffff1673ffffffffffffffffffffffffffffffffffffffff16815260200191505060405180910390f35b3480156100ca57600080fd5b506100d3610195565b604051808273ffffffffffffffffffffffffffffffffffffffff1673ffffffffffffffffffffffffffffffffffffffff16815260200191505060405180910390f35b34801561012157600080fd5b5061012a6101ba565b005b34801561013857600080fd5b5061016d600480360381019080803573ffffffffffffffffffffffffffffffffffffffff169060200190929190505050610359565b005b600160009054906101000a900473ffffffffffffffffffffffffffffffffffffffff1681565b6000809054906101000a900473ffffffffffffffffffffffffffffffffffffffff1681565b600160009054906101000a900473ffffffffffffffffffffffffffffffffffffffff1673ffffffffffffffffffffffffffffffffffffffff163373ffffffffffffffffffffffffffffffffffffffff1614151561021657600080fd5b600160009054906101000a900473ffffffffffffffffffffffffffffffffffffffff1673ffffffffffffffffffffffffffffffffffffffff166000809054906101000a900473ffffffffffffffffffffffffffffffffffffffff1673ffffffffffffffffffffffffffffffffffffffff167fbe4cc281795971a471c980e842627a7f1ea3892ddfce8c5b6357cd2611c1973260405160405180910390a3600160009054906101000a900473ffffffffffffffffffffffffffffffffffffffff166000806101000a81548173ffffffffffffffffffffffffffffffffffffffff021916908373ffffffffffffffffffffffffffffffffffffffff1602179055506000600160006101000a81548173ffffffffffffffffffffffffffffffffffffffff021916908373ffffffffffffffffffffffffffffffffffffffff160217905550565b6000809054906101000a900473ffffffffffffffffffffffffffffffffffffffff1673ffffffffffffffffffffffffffffffffffffffff163373ffffffffffffffffffffffffffffffffffffffff161415156103b157fe5b6000809054906101000a900473ffffffffffffffffffffffffffffffffffffffff1673ffffffffffffffffffffffffffffffffffffffff168173ffffffffffffffffffffffffffffffffffffffff161415151561040d57600080fd5b80600160006101000a81548173ffffffffffffffffffffffffffffffffffffffff021916908373ffffffffffffffffffffffffffffffffffffffff160217905550505600a165627a7a72305820016758a1b3f3f746e30da2bbd33c7199b16096086efa2c162bd134f0bed6202e0029",
  "source": "pragma solidity ^0.4.18;\n\n/*\n    Provides support and utilities for contract management\n*/\ncontract Managed {\n    address public manager;\n    address public newManager;\n\n    event ManagerUpdate(address indexed _prevManager, address indexed _newManager);\n\n    /**\n        @dev constructor\n    */\n    function Managed() public {\n        manager = msg.sender;\n    }\n\n    // allows execution by the manager only\n    modifier managerOnly {\n        assert(msg.sender == manager);\n        _;\n    }\n\n    /**\n        @dev allows transferring the contract management\n        the new manager still needs to accept the transfer\n        can only be called by the contract manager\n\n        @param _newManager    new contract manager\n    */\n    function transferManagement(address _newManager) public managerOnly {\n        require(_newManager != manager);\n        newManager = _newManager;\n    }\n\n    /**\n        @dev used by a new manager to accept a management transfer\n    */\n    function acceptManagement() public {\n        require(msg.sender == newManager);\n        ManagerUpdate(manager, newManager);\n        manager = newManager;\n        newManager = address(0);\n    }\n}\n",
  "sourcePath": "D:\\EthereumProjects\\work\\mulaProtocol\\contracts\\bancor\\contracts\\Managed.sol",
  "compiler": {
    "name": "solc",
    "version": "0.4.23+commit.124ca40d.Emscripten.clang"
  },
  "schemaVersion": "2.0.0",
  "updatedAt": "2018-05-02T11:25:28.207Z"
}