{
  "contractName": "RefungibleToken",
  "abi": [
    {
      "constant": true,
      "inputs": [],
      "name": "nrOfAssets",
      "outputs": [
        {
          "name": "",
          "type": "uint256"
        }
      ],
      "payable": false,
      "stateMutability": "view",
      "type": "function"
    },
    {
      "constant": true,
      "inputs": [],
      "name": "owner",
      "outputs": [
        {
          "name": "",
          "type": "address"
        }
      ],
      "payable": false,
      "stateMutability": "view",
      "type": "function"
    },
    {
      "constant": true,
      "inputs": [],
      "name": "_divisibility",
      "outputs": [
        {
          "name": "",
          "type": "uint256"
        }
      ],
      "payable": false,
      "stateMutability": "view",
      "type": "function"
    },
    {
      "constant": true,
      "inputs": [],
      "name": "inCirculation",
      "outputs": [
        {
          "name": "",
          "type": "uint256"
        }
      ],
      "payable": false,
      "stateMutability": "view",
      "type": "function"
    },
    {
      "constant": false,
      "inputs": [
        {
          "name": "newOwner",
          "type": "address"
        }
      ],
      "name": "transferOwnership",
      "outputs": [],
      "payable": false,
      "stateMutability": "nonpayable",
      "type": "function"
    },
    {
      "inputs": [],
      "payable": false,
      "stateMutability": "nonpayable",
      "type": "constructor"
    },
    {
      "anonymous": false,
      "inputs": [
        {
          "indexed": false,
          "name": "_proof",
          "type": "address"
        }
      ],
      "name": "Minted",
      "type": "event"
    },
    {
      "anonymous": false,
      "inputs": [
        {
          "indexed": true,
          "name": "previousOwner",
          "type": "address"
        },
        {
          "indexed": true,
          "name": "newOwner",
          "type": "address"
        }
      ],
      "name": "OwnershipTransferred",
      "type": "event"
    },
    {
      "constant": false,
      "inputs": [
        {
          "name": "newDivisibility",
          "type": "uint256"
        }
      ],
      "name": "changeDivisibility",
      "outputs": [],
      "payable": false,
      "stateMutability": "nonpayable",
      "type": "function"
    },
    {
      "constant": false,
      "inputs": [
        {
          "name": "newSmartToken",
          "type": "address"
        }
      ],
      "name": "changeSmartToken",
      "outputs": [],
      "payable": false,
      "stateMutability": "nonpayable",
      "type": "function"
    },
    {
      "constant": false,
      "inputs": [
        {
          "name": "_proof",
          "type": "address"
        }
      ],
      "name": "mint",
      "outputs": [],
      "payable": false,
      "stateMutability": "nonpayable",
      "type": "function"
    },
    {
      "constant": false,
      "inputs": [
        {
          "name": "_tokens",
          "type": "uint256"
        }
      ],
      "name": "addInCirculation",
      "outputs": [],
      "payable": false,
      "stateMutability": "nonpayable",
      "type": "function"
    },
    {
      "constant": false,
      "inputs": [
        {
          "name": "_tokens",
          "type": "uint256"
        }
      ],
      "name": "removeFromCirculation",
      "outputs": [],
      "payable": false,
      "stateMutability": "nonpayable",
      "type": "function"
    },
    {
      "constant": true,
      "inputs": [],
      "name": "getDivisibility",
      "outputs": [
        {
          "name": "",
          "type": "uint256"
        }
      ],
      "payable": false,
      "stateMutability": "view",
      "type": "function"
    }
  ],
  "bytecode": "0x6080604052620186a060015534801561001757600080fd5b50336000806101000a81548173ffffffffffffffffffffffffffffffffffffffff021916908373ffffffffffffffffffffffffffffffffffffffff160217905550336000806101000a81548173ffffffffffffffffffffffffffffffffffffffff021916908373ffffffffffffffffffffffffffffffffffffffff160217905550610899806100a76000396000f3006080604052600436106100af576000357c0100000000000000000000000000000000000000000000000000000000900463ffffffff168063344d0978146100b45780633a4cecd6146100e157806340242db21461012457806342491be21461014f5780636a6278421461017c5780637e254744146101bf5780638da5cb5b146101ea578063ad259b6014610241578063e16bff2e1461026e578063e5a93dd814610299578063f2fde38b146102c4575b600080fd5b3480156100c057600080fd5b506100df60048036038101908080359060200190929190505050610307565b005b3480156100ed57600080fd5b50610122600480360381019080803573ffffffffffffffffffffffffffffffffffffffff16906020019092919050505061037d565b005b34801561013057600080fd5b5061013961041c565b6040518082815260200191505060405180910390f35b34801561015b57600080fd5b5061017a60048036038101908080359060200190929190505050610422565b005b34801561018857600080fd5b506101bd600480360381019080803573ffffffffffffffffffffffffffffffffffffffff1690602001909291905050506104c1565b005b3480156101cb57600080fd5b506101d461062c565b6040518082815260200191505060405180910390f35b3480156101f657600080fd5b506101ff610636565b604051808273ffffffffffffffffffffffffffffffffffffffff1673ffffffffffffffffffffffffffffffffffffffff16815260200191505060405180910390f35b34801561024d57600080fd5b5061026c6004803603810190808035906020019092919050505061065b565b005b34801561027a57600080fd5b506102836106d5565b6040518082815260200191505060405180910390f35b3480156102a557600080fd5b506102ae6106db565b6040518082815260200191505060405180910390f35b3480156102d057600080fd5b50610305600480360381019080803573ffffffffffffffffffffffffffffffffffffffff1690602001909291905050506106e1565b005b6000809054906101000a900473ffffffffffffffffffffffffffffffffffffffff1673ffffffffffffffffffffffffffffffffffffffff163373ffffffffffffffffffffffffffffffffffffffff1614151561036257600080fd5b600060035414151561037357600080fd5b8060018190555050565b6000809054906101000a900473ffffffffffffffffffffffffffffffffffffffff1673ffffffffffffffffffffffffffffffffffffffff163373ffffffffffffffffffffffffffffffffffffffff161415156103d857600080fd5b80600560006101000a81548173ffffffffffffffffffffffffffffffffffffffff021916908373ffffffffffffffffffffffffffffffffffffffff16021790555050565b60025481565b600560009054906101000a900473ffffffffffffffffffffffffffffffffffffffff1673ffffffffffffffffffffffffffffffffffffffff163373ffffffffffffffffffffffffffffffffffffffff1614151561047e57600080fd5b6001546104968260035461083690919063ffffffff16565b111515156104a357600080fd5b6104b88160035461083690919063ffffffff16565b60038190555050565b6000809054906101000a900473ffffffffffffffffffffffffffffffffffffffff1673ffffffffffffffffffffffffffffffffffffffff163373ffffffffffffffffffffffffffffffffffffffff1614151561051c57600080fd5b600160025410151561052d57600080fd5b600073ffffffffffffffffffffffffffffffffffffffff168173ffffffffffffffffffffffffffffffffffffffff161415151561056957600080fd5b80600460006101000a81548173ffffffffffffffffffffffffffffffffffffffff021916908373ffffffffffffffffffffffffffffffffffffffff1602179055506105c0600160025461083690919063ffffffff16565b6002819055507f90ddedd5a25821bba11fbb98de02ec1f75c1be90ae147d6450ce873e7b78b5d881604051808273ffffffffffffffffffffffffffffffffffffffff1673ffffffffffffffffffffffffffffffffffffffff16815260200191505060405180910390a150565b6000600154905090565b6000809054906101000a900473ffffffffffffffffffffffffffffffffffffffff1681565b600560009054906101000a900473ffffffffffffffffffffffffffffffffffffffff1673ffffffffffffffffffffffffffffffffffffffff163373ffffffffffffffffffffffffffffffffffffffff161415156106b757600080fd5b6106cc8160035461085490919063ffffffff16565b60038190555050565b60015481565b60035481565b6000809054906101000a900473ffffffffffffffffffffffffffffffffffffffff1673ffffffffffffffffffffffffffffffffffffffff163373ffffffffffffffffffffffffffffffffffffffff1614151561073c57600080fd5b600073ffffffffffffffffffffffffffffffffffffffff168173ffffffffffffffffffffffffffffffffffffffff161415151561077857600080fd5b8073ffffffffffffffffffffffffffffffffffffffff166000809054906101000a900473ffffffffffffffffffffffffffffffffffffffff1673ffffffffffffffffffffffffffffffffffffffff167f8be0079c531659141344cd1fd0a4f28419497f9722a3daafe3b4186f6b6457e060405160405180910390a3806000806101000a81548173ffffffffffffffffffffffffffffffffffffffff021916908373ffffffffffffffffffffffffffffffffffffffff16021790555050565b600080828401905083811015151561084a57fe5b8091505092915050565b600082821115151561086257fe5b8183039050929150505600a165627a7a7230582019eb5c72f7b5e665c51d8ef12f921ba3da28001187b9ba15dd8c03c8fd727db20029",
  "source": "pragma solidity ^0.4.17;\r\n\r\nimport \"contracts/utils/Ownable.sol\";\r\nimport \"contracts/utils/math/SafeMath.sol\";\r\nimport \"contracts/mulaInterfaces/IRefungibleToken.sol\";\r\n\r\ncontract RefungibleToken is Ownable, IRefungibleToken {\r\n\r\n\tusing SafeMath for uint256;\r\n\r\n\t// Number of equal(fungible) units that constitute a token (that a token can be divised to)\r\n\tuint256 public _divisibility = 100000;\r\n\r\n\t// total number of contracts registered in this contract\r\n\tuint256 public nrOfAssets;\r\n\r\n\tuint256 public inCirculation;\r\n\r\n\taddress assetInformation;\r\n\r\n\taddress smartToken;\r\n\r\n\tmodifier onlyOneAsset {\r\n\r\n\t\trequire(nrOfAssets == 1);\r\n\t\t_;\r\n\r\n\t}\r\n\r\n\tmodifier maximumOneAsset {\r\n\r\n\t\trequire(nrOfAssets < 1);\r\n\t\t_;\r\n\r\n\t}\r\n\r\n\tmodifier nothingInCirculation {\r\n\r\n\t\trequire(inCirculation == 0);\r\n\t\t_;\r\n\r\n\t}\r\n\r\n\tmodifier onlySmartToken {\r\n\r\n\t\trequire(msg.sender == smartToken);\r\n\t\t_;\r\n\r\n\t}\r\n\r\n    function RefungibleToken() {\r\n\r\n        owner = msg.sender;\r\n\r\n    }\r\n\r\n\tfunction changeDivisibility(uint256 newDivisibility) public onlyOwner nothingInCirculation {\r\n\r\n\t\t_divisibility = newDivisibility;\r\n\r\n\t}\r\n\r\n\tfunction changeSmartToken(address newSmartToken) public onlyOwner {\r\n\r\n\t\tsmartToken = newSmartToken;\r\n\r\n\t}\r\n\r\n\t\r\n\t/// @dev Only the owner can create a token in our example\r\n\tfunction mint(address _proof) public onlyOwner maximumOneAsset\r\n\t{\t\r\n\r\n\t\trequire(_proof != address(0));\r\n\r\n\t\tassetInformation = _proof;\r\n\r\n\t\tnrOfAssets = nrOfAssets.add(1);\r\n\r\n\t\tMinted(_proof);\r\n\r\n\t}\r\n\r\n\tfunction addInCirculation(uint256 _tokens) public onlySmartToken {\r\n\r\n\t\trequire(inCirculation.add(_tokens) <= _divisibility);\r\n\r\n\t\tinCirculation = inCirculation.add(_tokens);\r\n\r\n\t}\r\n\r\n\tfunction removeFromCirculation(uint256 _tokens) public onlySmartToken {\r\n\r\n\t\tinCirculation = inCirculation.sub(_tokens);\r\n\r\n\t}\r\n\r\n\tfunction getDivisibility() public constant returns (uint256) {\r\n\r\n\t\treturn _divisibility;\r\n\r\n\t}\r\n\r\n}",
  "sourcePath": "D:\\EthereumProjects\\work\\mulaProtocol\\contracts\\RefungibleToken.sol",
  "compiler": {
    "name": "solc",
    "version": "0.4.23+commit.124ca40d.Emscripten.clang"
  },
  "schemaVersion": "2.0.0",
  "updatedAt": "2018-05-02T11:25:28.368Z"
}